{"project/contracts/LuckyDrawFactory.sol":{"LuckyDrawFactory":{"abi":[{"inputs":[{"internalType":"address","name":"_usdtToken","type":"address"},{"internalType":"address","name":"_tlootToken","type":"address"},{"internalType":"address","name":"_supraRouter","type":"address"},{"internalType":"address","name":"_admin","type":"address"}],"stateMutability":"nonpayable","type":"constructor"},{"anonymous":false,"inputs":[{"indexed":true,"internalType":"address","name":"poolAddress","type":"address"},{"indexed":true,"internalType":"address","name":"creator","type":"address"},{"indexed":false,"internalType":"string","name":"eventName","type":"string"},{"indexed":false,"internalType":"uint256","name":"ticketPrice","type":"uint256"},{"indexed":false,"internalType":"uint256","name":"entryAmount","type":"uint256"},{"indexed":false,"internalType":"uint256","name":"maxParticipants","type":"uint256"}],"name":"PoolCreated","type":"event"},{"inputs":[],"name":"admin","outputs":[{"internalType":"address","name":"","type":"address"}],"stateMutability":"view","type":"function"},{"inputs":[{"internalType":"uint256","name":"","type":"uint256"}],"name":"allPools","outputs":[{"internalType":"address","name":"","type":"address"}],"stateMutability":"view","type":"function"},{"inputs":[{"internalType":"address","name":"creator","type":"address"},{"internalType":"string","name":"eventName","type":"string"},{"internalType":"uint256","name":"eventDate","type":"uint256"},{"internalType":"uint256","name":"ticketPrice","type":"uint256"},{"internalType":"uint256","name":"entryAmount","type":"uint256"},{"internalType":"uint256","name":"maxParticipants","type":"uint256"},{"internalType":"uint256","name":"poolDeadline","type":"uint256"}],"name":"createPool","outputs":[{"internalType":"address","name":"","type":"address"}],"stateMutability":"nonpayable","type":"function"},{"inputs":[],"name":"getAllPools","outputs":[{"internalType":"address[]","name":"","type":"address[]"}],"stateMutability":"view","type":"function"},{"inputs":[],"name":"getPoolCount","outputs":[{"internalType":"uint256","name":"","type":"uint256"}],"stateMutability":"view","type":"function"},{"inputs":[{"internalType":"address","name":"user","type":"address"}],"name":"getUserCreatedPools","outputs":[{"internalType":"address[]","name":"","type":"address[]"}],"stateMutability":"view","type":"function"},{"inputs":[{"internalType":"address","name":"","type":"address"}],"name":"isPool","outputs":[{"internalType":"bool","name":"","type":"bool"}],"stateMutability":"view","type":"function"},{"inputs":[{"internalType":"address","name":"newAdmin","type":"address"}],"name":"setAdmin","outputs":[],"stateMutability":"nonpayable","type":"function"},{"inputs":[],"name":"supraRouter","outputs":[{"internalType":"address","name":"","type":"address"}],"stateMutability":"view","type":"function"},{"inputs":[],"name":"tlootToken","outputs":[{"internalType":"address","name":"","type":"address"}],"stateMutability":"view","type":"function"},{"inputs":[],"name":"usdtToken","outputs":[{"internalType":"address","name":"","type":"address"}],"stateMutability":"view","type":"function"},{"inputs":[{"internalType":"address","name":"","type":"address"},{"internalType":"uint256","name":"","type":"uint256"}],"name":"userCreatedPools","outputs":[{"internalType":"address","name":"","type":"address"}],"stateMutability":"view","type":"function"}],"evm":{"bytecode":{"linkReferences":{},"object":"60e0346100d457601f61268738819003918201601f19168301916001600160401b038311848410176100d8578084926080946040528339810103126100d457610047816100ec565b90610054602082016100ec565b61006c6060610065604085016100ec565b93016100ec565b60809390935260a05260c0525f80546001600160a01b0319166001600160a01b03909216919091179055604051612586908161010182396080518181816102c50152610591015260a0518181816102ea01526106a6015260c05181818160e101526103140152f35b5f80fd5b634e487b7160e01b5f52604160045260245ffd5b51906001600160a01b03821682036100d45756fe6080806040526004361015610012575f80fd5b5f905f3560e01c9081632d380cca1461078a5750806341d1de97146107125780635b16ebb7146106d55780636b0ce9ea14610691578063704b6c02146105dd5780638eec5d70146105c0578063a98ad46c1461057c578063ae808e80146101ff578063bbef6f901461019e578063d88ff1f414610110578063e621ff8a146100cb5763f851a440146100a2575f80fd5b346100c857806003193601126100c857546040516001600160a01b039091168152602090f35b80fd5b50346100c857806003193601126100c8576040517f00000000000000000000000000000000000000000000000000000000000000006001600160a01b03168152602090f35b50346100c857806003193601126100c85760405180916020600154928381520191600182527fb10e2d527612073b26eecdfd717e6a320cf44b4afac2b0732d9fcbe2b7fa0cf6915b81811061017f5761017b8561016f8187038261086d565b60405191829182610816565b0390f35b82546001600160a01b0316845260209093019260019283019201610158565b50346100c85760403660031901126100c8576101b8610800565b6001600160a01b03168152600260205260408120805460243592908310156100c85760206101e68484610858565b905460405160039290921b1c6001600160a01b03168152f35b50346105325760e036600319011261053257610219610800565b60243567ffffffffffffffff8111610532573660238201121561053257806004013567ffffffffffffffff81116105685760405191610262601f8301601f19166020018461086d565b818352366024838301011161053257815f926024602093018386013783010152606435906084359160a43560018060a01b035f541694604051611c9d80820182811067ffffffffffffffff8211176105685782916108b483396001600160a01b037f0000000000000000000000000000000000000000000000000000000000000000811682527f00000000000000000000000000000000000000000000000000000000000000008116602083018190527f000000000000000000000000000000000000000000000000000000000000000090911660408301526060820199909952610140608082018190526103599082018861088f565b9060443560a08201528660c08201528860e08201528561010082015261012060c43591015203905ff080156105275760405163d539139360e01b81526001600160a01b03919091169690602081600481855afa908115610527575f91610536575b50813b15610532575f91604483926040519485938492632f2ff15d60e01b845260048401528c60248401525af1801561052757610512575b50600154600160401b8110156104fe5780600161041492016001556001610858565b81546001600160a01b0360039290921b82811b199091169089901b1790915516808752600260205260408720805491959190600160401b8210156104ea5792879592604060209a610490856104d09860017fbb7692b5ccdf241714f597949c7d2c2148afc9532abbbf001ff1d28cb3310da79b98018155610858565b81549060031b908b821b9160018060a01b03901b191617905588815260038c5220600160ff1982541617905560405194859460808652608086019061088f565b928a850152604084015260608301520390a3604051908152f35b634e487b7160e01b89526041600452602489fd5b634e487b7160e01b88526041600452602488fd5b61051f9197505f9061086d565b5f955f6103f2565b6040513d5f823e3d90fd5b5f80fd5b90506020813d602011610560575b816105516020938361086d565b8101031261053257515f6103ba565b3d9150610544565b634e487b7160e01b5f52604160045260245ffd5b34610532575f366003190112610532576040517f00000000000000000000000000000000000000000000000000000000000000006001600160a01b03168152602090f35b34610532575f366003190112610532576020600154604051908152f35b34610532576020366003190112610532576105f6610800565b5f54906001600160a01b038216330361065f576001600160a01b0316908115610628576001600160a01b031916175f55005b60405162461bcd60e51b815260206004820152600f60248201526e496e76616c6964206164647265737360881b6044820152606490fd5b60405162461bcd60e51b815260206004820152600a60248201526927b7363c9030b236b4b760b11b6044820152606490fd5b34610532575f366003190112610532576040517f00000000000000000000000000000000000000000000000000000000000000006001600160a01b03168152602090f35b34610532576020366003190112610532576001600160a01b036106f6610800565b165f526003602052602060ff60405f2054166040519015158152f35b3461053257602036600319011261053257600435600154811015610532576001548110156107765760015f527fb10e2d527612073b26eecdfd717e6a320cf44b4afac2b0732d9fcbe2b7fa0cf601546040516001600160a01b039091168152602090f35b634e487b7160e01b5f52603260045260245ffd5b34610532576020366003190112610532576001600160a01b036107ab610800565b165f52600260205260405f20805480835260208301915f5260205f20905f5b8181106107e15761017b8561016f8187038261086d565b82546001600160a01b03168452602090930192600192830192016107ca565b600435906001600160a01b038216820361053257565b60206040818301928281528451809452019201905f5b8181106108395750505090565b82516001600160a01b031684526020938401939092019160010161082c565b8054821015610776575f5260205f2001905f90565b90601f8019910116810190811067ffffffffffffffff82111761056857604052565b805180835260209291819084018484015e5f828201840152601f01601f191601019056fe6101206040523461036e57611c9d8038038061001a81610372565b9283398101906101408183031261036e5761003481610397565b61004060208301610397565b61004c60408401610397565b61005860608501610397565b60808501519095906001600160401b03811161036e57850181601f8201121561036e578051906001600160401b0382116103475761009f601f8301601f1916602001610372565b928284526020838301011161036e57815f9260208093018386015e8301015260a08501519160c08601519360e08701519561012061010089015198015198331561035b575f8054336001600160a01b0319821681178355916001600160a01b03909116907f8be0079c531659141344cd1fd0a4f28419497f9722a3daafe3b4186f6b6457e09080a3600180553360e052610100526001600160a01b0390811660805290811660a0521660c0528051906001600160401b0382116103475760025490600182811c9216801561033d575b60208310146103295781601f8493116102bb575b50602090601f8311600114610255575f9261024a575b50508160011b915f199060031b1c1916176002555b600355600455600555600655600755426008556040516118f190816103ac82396080518181816102d4015281816105d1015281816107c101528181610956015261179f015260a051818181610a270152610f4a015260c0518181816104fb01528181610d2a01526115c5015260e0518161075e0152610100518181816101b4015281816101fd015281816102490152818161058901526111d20152f35b015190505f80610198565b60025f9081528281209350601f198516905b8181106102a3575090846001959493921061028b575b505050811b016002556101ad565b01515f1960f88460031b161c191690555f808061027d565b92936020600181928786015181550195019301610267565b60025f529091507f405787fa12a823e0f2b7631cc41b3ba8828b3321ca811111fa75cd3aa3bb5ace601f840160051c8101916020851061031f575b90601f859493920160051c01905b8181106103115750610182565b5f8155849350600101610304565b90915081906102f6565b634e487b7160e01b5f52602260045260245ffd5b91607f169161016e565b634e487b7160e01b5f52604160045260245ffd5b631e4fbdf760e01b5f525f60045260245ffd5b5f80fd5b6040519190601f01601f191682016001600160401b0381118382101761034757604052565b51906001600160a01b038216820361036e5756fe6080806040526004361015610012575f80fd5b5f905f3560e01c9081630231141a14611299575080631209b1f61461127c57806318a7ea5f1461125f5780631b55b2a8146111bc57806324924bf71461119f57806335c1d3491461115d57806342e94c90146111215780634bfbe5df146111045780635aa68ac01461103c5780635e098f051461101a57806360246c8814610f795780636b0ce9ea14610f355780636ec21cc814610f18578063715018a614610ec15780637d183f3d14610cac5780638043c9c014610c795780638371e6b4146108c3578063877f4e12146108815780638d4e40831461085b5780638da5cb5b1461083457806395ee12211461080e578063991def3c146107f0578063a98ad46c146107ab578063ad6057291461078d578063c45a015514610748578063ccbac9f51461072a578063cf09e0d01461070c578063db2e21bc14610576578063dfbf53ae1461054d578063e5b8bdac1461052a578063e621ff8a146104e5578063f2fde38b14610457578063f648b99e14610236578063f8413b07146101e65763f851a4401461019f575f80fd5b346101e357806003193601126101e3576040517f00000000000000000000000000000000000000000000000000000000000000006001600160a01b03168152602090f35b80fd5b50346101e357806003193601126101e35761022b337f00000000000000000000000000000000000000000000000000000000000000006001600160a01b0316146113f3565b61023361150c565b80f35b50346101e357806003193601126101e3577f000000000000000000000000000000000000000000000000000000000000000061027c336001600160a01b038316146113f3565b600c5461028f60ff8260a81c161561146c565b61029f60ff8260a01c161561142c565b6001600160a01b0381161561041c5760ff60a01b1916600160a01b17600c556040516370a0823160e01b8152306004820152907f00000000000000000000000000000000000000000000000000000000000000006001600160a01b031690602083602481855afa9283156104115784936103d6575b5060405163a9059cbb60e01b81526001600160a01b0391909116600482015260248101839052906020908290604490829087905af180156103cb5761036091849161039c575b506114ce565b600c546040519182526001600160a01b0316907f46905eac8cf77ffeea71d53ec1edfeff61d4de579fb9e1f58235a3397ef302d590602090a280f35b6103be915060203d6020116103c4575b6103b681836112ef565b8101906114a9565b5f61035a565b503d6103ac565b6040513d85823e3d90fd5b909192506020813d602011610409575b816103f3602093836112ef565b81010312610405575191906020610314565b5f80fd5b3d91506103e6565b6040513d86823e3d90fd5b60405162461bcd60e51b815260206004820152601360248201527215da5b9b995c881b9bdd081cd95b1958dd1959606a1b6044820152606490fd5b50346101e35760203660031901126101e3576004356001600160a01b038116908190036104e157610486611895565b80156104cd5781546001600160a01b03198116821783556001600160a01b03167f8be0079c531659141344cd1fd0a4f28419497f9722a3daafe3b4186f6b6457e08380a380f35b631e4fbdf760e01b82526004829052602482fd5b5080fd5b50346101e357806003193601126101e3576040517f00000000000000000000000000000000000000000000000000000000000000006001600160a01b03168152602090f35b50346101e357806003193601126101e357602060ff601054166040519015158152f35b50346101e357806003193601126101e357600c546040516001600160a01b039091168152602090f35b50346101e357806003193601126101e3577f00000000000000000000000000000000000000000000000000000000000000006105bc336001600160a01b038316146113f3565b6040516370a0823160e01b81523060048201527f00000000000000000000000000000000000000000000000000000000000000006001600160a01b0316602082602481845afa9182156104115784926106d8575b5081156106a65760405163a9059cbb60e01b81526001600160a01b03939093166004840152602483018290526020908390604490829087905af19081156103cb576106856020927f8e9f10b004ce7e96c30b2445271dd45d41fcfacb742cf4843f1b790afa7a765794869161068f57506114ce565b604051908152a180f35b6103be9150843d86116103c4576103b681836112ef565b60405162461bcd60e51b815260206004820152600a6024820152694e6f2062616c616e636560b01b6044820152606490fd5b9091506020813d602011610704575b816106f4602093836112ef565b810103126104055751905f610610565b3d91506106e7565b50346101e357806003193601126101e3576020600854604051908152f35b50346101e357806003193601126101e3576020600f54604051908152f35b50346101e357806003193601126101e3576040517f00000000000000000000000000000000000000000000000000000000000000006001600160a01b03168152602090f35b50346101e357806003193601126101e3576020600954604051908152f35b50346101e357806003193601126101e3576040517f00000000000000000000000000000000000000000000000000000000000000006001600160a01b03168152602090f35b50346101e357806003193601126101e3576020600554604051908152f35b50346101e357806003193601126101e357602060ff600c5460a81c166040519015158152f35b50346101e357806003193601126101e357546040516001600160a01b039091168152602090f35b50346101e357806003193601126101e357602060ff600c5460a01c166040519015158152f35b50346101e35760203660031901126101e3576004356001600160a01b038116908190036104e15760408260ff9260209452600b84522054166040519015158152f35b5034610405575f36600319011261040557600260015414610c6a57600260015560ff600c546108f7828260a81c161561146c565b60a01c16610c3457600754421015610c0057335f52600b60205260ff60405f205416610bca576009546006541115610b99576005546040516323b872dd60e01b815233600482015230602482015260448101919091526020816064815f7f00000000000000000000000000000000000000000000000000000000000000006001600160a01b03165af1908115610b0b575f91610b7a575b5015610b3e5760095468010000000000000000811015610b2a578060016109b892016009556112b3565b81549060031b9033821b9160018060a01b03901b1916179055600554335f52600a60205260405f2055335f52600b60205260405f20600160ff19825416179055600554610a0781600d546114c1565b600d5564e8d4a5100081029080820464e8d4a510001490151715610b16577f00000000000000000000000000000000000000000000000000000000000000006001600160a01b0316803b15610405575f809160a4604051809481936334ff261960e21b835233600484015287602484015260606044840152601860648401527f4c75636b7920647261772070617274696369706174696f6e000000000000000060848401525af18015610b0b57610af6575b506005549060405191825260208201527f51b7edbaf76c2d4666bf0dea3cd5214e035cdaed9a6cfb5b0fb0dbc1ac698caa60403392a26001805580f35b610b039192505f906112ef565b5f905f610ab9565b6040513d5f823e3d90fd5b634e487b7160e01b5f52601160045260245ffd5b634e487b7160e01b5f52604160045260245ffd5b60405162461bcd60e51b81526020600482015260146024820152731554d115081d1c985b9cd9995c8819985a5b195960621b6044820152606490fd5b610b93915060203d6020116103c4576103b681836112ef565b5f61098e565b60405162461bcd60e51b8152602060048201526009602482015268141bdbdb08199d5b1b60ba1b6044820152606490fd5b60405162461bcd60e51b815260206004820152600e60248201526d105b1c9958591e481a9bda5b995960921b6044820152606490fd5b60405162461bcd60e51b815260206004820152600c60248201526b141bdbdb08195e1c1a5c995960a21b6044820152606490fd5b60405162461bcd60e51b815260206004820152600e60248201526d141bdbdb08199a5b985b1a5e995960921b6044820152606490fd5b633ee5aeb560e01b5f5260045ffd5b34610405575f36600319011261040557610ca8610c94611311565b6040519182916020835260208301906112cb565b0390f35b346104055760403660031901126104055760243567ffffffffffffffff8111610405573660238201121561040557806004013567ffffffffffffffff8111610b2a578060051b9160405191610d0460208501846112ef565b825260208201602481948301019136831161040557602401905b828210610eb1575050507f00000000000000000000000000000000000000000000000000000000000000006001600160a01b03163303610e7857600e5460043503610e3e57805115610e06575115610df2575180600f556009548015610dde576020610dac7f75060f9e79552df167b73353fee6237a75bb5ba8ea022f77224e32f152138bcb9284066112b3565b60018060a01b0391549060031b1c1692836bffffffffffffffffffffffff60a01b600c541617600c55604051908152a2005b634e487b7160e01b5f52601260045260245ffd5b634e487b7160e01b5f52603260045260245ffd5b60405162461bcd60e51b815260206004820152601060248201526f2737903930b73237b690373ab6b132b960811b6044820152606490fd5b60405162461bcd60e51b8152602060048201526012602482015271125b9d985b1a59081c995c5d595cdd08125160721b6044820152606490fd5b60405162461bcd60e51b815260206004820152601160248201527027b7363c9029bab83930902937baba32b960791b6044820152606490fd5b8135815260209182019101610d1e565b34610405575f36600319011261040557610ed9611895565b5f80546001600160a01b0319811682556001600160a01b03167f8be0079c531659141344cd1fd0a4f28419497f9722a3daafe3b4186f6b6457e08280a3005b34610405575f366003190112610405576020600d54604051908152f35b34610405575f366003190112610405576040517f00000000000000000000000000000000000000000000000000000000000000006001600160a01b03168152602090f35b34610405575f36600319011261040557610fc96003546004549060ff600554600654600954600d549060075492600c5494610fb2611311565b986040519a8b9a6101608c526101608c01906112cb565b9860208b015260408a01526060890152608088015260a087015260c086015260e085015260018060a01b038116610100850152818160a01c16151561012085015260a81c1615156101408301520390f35b34610405575f366003190112610405576020600d546004541115604051908152f35b34610405575f366003190112610405576040518060206009549283815201809260095f527f6e1540171b6c0c960b71a7020d9f60077f6af931a8bbf590da0223dacf75c7af905f5b8181106110e5575050508161109a9103826112ef565b604051918291602083019060208452518091526040830191905f5b8181106110c3575050500390f35b82516001600160a01b03168452859450602093840193909201916001016110b5565b82546001600160a01b0316845260209093019260019283019201611084565b34610405575f366003190112610405576020600354604051908152f35b34610405576020366003190112610405576004356001600160a01b03811690819003610405575f52600a602052602060405f2054604051908152f35b3461040557602036600319011261040557600435600954811015610405576111866020916112b3565b905460405160039290921b1c6001600160a01b03168152f35b34610405575f366003190112610405576020600654604051908152f35b34610405575f36600319011261040557611200337f00000000000000000000000000000000000000000000000000000000000000006001600160a01b0316146113f3565b60ff600c54611214828260a01c161561142c565b60a81c1661122657611224611700565b005b60405162461bcd60e51b8152602060048201526011602482015270105b1c9958591e4818d85b98d95b1b1959607a1b6044820152606490fd5b34610405575f366003190112610405576020600e54604051908152f35b34610405575f366003190112610405576020600454604051908152f35b34610405575f366003190112610405576020906007548152f35b600954811015610df25760095f5260205f2001905f90565b805180835260209291819084018484015e5f828201840152601f01601f1916010190565b90601f8019910116810190811067ffffffffffffffff821117610b2a57604052565b604051905f6002548060011c91600182169182156113e9575b6020841083146113d55783865285929081156113b65750600114611357575b611355925003836112ef565b565b5060025f90815290917f405787fa12a823e0f2b7631cc41b3ba8828b3321ca811111fa75cd3aa3bb5ace5b81831061139a57505090602061135592820101611349565b6020919350806001915483858901015201910190918492611382565b6020925061135594915060ff191682840152151560051b820101611349565b634e487b7160e01b5f52602260045260245ffd5b92607f169261132a565b156113fa57565b60405162461bcd60e51b815260206004820152600a60248201526927b7363c9030b236b4b760b11b6044820152606490fd5b1561143357565b60405162461bcd60e51b8152602060048201526011602482015270105b1c9958591e48199a5b985b1a5e9959607a1b6044820152606490fd5b1561147357565b60405162461bcd60e51b815260206004820152600e60248201526d141bdbdb0818d85b98d95b1b195960921b6044820152606490fd5b90816020910312610405575180151581036104055790565b91908201809211610b1657565b156114d557565b60405162461bcd60e51b815260206004820152600f60248201526e151c985b9cd9995c8819985a5b1959608a1b6044820152606490fd5b61152d60ff600c54611523828260a81c161561146c565b60a01c161561142c565b60075442106116ca57600954156116935760ff6010541661165a57600d546004541161165257600160ff19601054161760105560405163d291ba0960e01b815260806004820152601b60848201527f63616c6c6261636b2875696e743235362c75696e743235365b5d29000000000060a4820152600160248201526001604482015230606482015260208160c4815f60018060a01b037f0000000000000000000000000000000000000000000000000000000000000000165af1908115610b0b575f91611620575b5080600e557f9ac10fb18c93d33ad7b0a941897aef048d0f8d30756684e82b4552ba12764d455f80a2565b90506020813d60201161164a575b8161163b602093836112ef565b8101031261040557515f6115f5565b3d915061162e565b611355611700565b60405162461bcd60e51b8152602060048201526011602482015270105b1c9958591e481c995c5d595cdd1959607a1b6044820152606490fd5b60405162461bcd60e51b815260206004820152600f60248201526e4e6f207061727469636970616e747360881b6044820152606490fd5b60405162461bcd60e51b815260206004820152600e60248201526d141bdbdb081b9bdd08195b99195960921b6044820152606490fd5b600c805460ff60a81b1916600160a81b1790555f90815b6009548110156118665761172a816112b3565b905460039190911b1c6001600160a01b03165f818152600a6020526040902054908161175b575b5050600101611717565b5f818152600a602090815260408083208390555163a9059cbb60e01b81526001600160a01b03808516600483015260248201869052949795949092839160449183917f0000000000000000000000000000000000000000000000000000000000000000165af1908115610b0b575f91611848575b5015611813577fd7dee2702d63ad89917b6a4da9981c90c4d24f8c2bdfd64c604ecae57d8d06516020611804876001966114c1565b96604051908152a2905f611751565b60405162461bcd60e51b815260206004820152600d60248201526c1499599d5b990819985a5b1959609a1b6044820152606490fd5b611860915060203d81116103c4576103b681836112ef565b5f6117cf565b509060207f3d229dd60fc64b0903758feed58453f62e715f5d01dc0978c0a3a312dd2776c291604051908152a1565b5f546001600160a01b031633036118a857565b63118cdaa760e01b5f523360045260245ffdfea2646970667358221220bb2be1a0fb1037629c2b74e7de94a145dcc8a483de26faacd584eb191a495ef964736f6c634300081c0033a26469706673582212204a02e4335e5362e509da46d4beaa8b534d5ca2a70a6840c628db546f9bbd439d64736f6c634300081c0033","opcodes":"PUSH1 0xE0 CALLVALUE PUSH2 0xD4 JUMPI PUSH1 0x1F PUSH2 0x2687 CODESIZE DUP2 SWAP1 SUB SWAP2 DUP3 ADD PUSH1 0x1F NOT AND DUP4 ADD SWAP2 PUSH1 0x1 PUSH1 0x1 PUSH1 0x40 SHL SUB DUP4 GT DUP5 DUP5 LT OR PUSH2 0xD8 JUMPI DUP1 DUP5 SWAP3 PUSH1 0x80 SWAP5 PUSH1 0x40 MSTORE DUP4 CODECOPY DUP2 ADD SUB SLT PUSH2 0xD4 JUMPI PUSH2 0x47 DUP2 PUSH2 0xEC JUMP JUMPDEST SWAP1 PUSH2 0x54 PUSH1 0x20 DUP3 ADD PUSH2 0xEC JUMP JUMPDEST PUSH2 0x6C PUSH1 0x60 PUSH2 0x65 PUSH1 0x40 DUP6 ADD PUSH2 0xEC JUMP JUMPDEST SWAP4 ADD PUSH2 0xEC JUMP JUMPDEST PUSH1 0x80 SWAP4 SWAP1 SWAP4 MSTORE PUSH1 0xA0 MSTORE PUSH1 0xC0 MSTORE PUSH0 DUP1 SLOAD PUSH1 0x1 PUSH1 0x1 PUSH1 0xA0 SHL SUB NOT AND PUSH1 0x1 PUSH1 0x1 PUSH1 0xA0 SHL SUB SWAP1 SWAP3 AND SWAP2 SWAP1 SWAP2 OR SWAP1 SSTORE PUSH1 0x40 MLOAD PUSH2 0x2586 SWAP1 DUP2 PUSH2 0x101 DUP3 CODECOPY PUSH1 0x80 MLOAD DUP2 DUP2 DUP2 PUSH2 0x2C5 ADD MSTORE PUSH2 0x591 ADD MSTORE PUSH1 0xA0 MLOAD DUP2 DUP2 DUP2 PUSH2 0x2EA ADD MSTORE PUSH2 0x6A6 ADD MSTORE PUSH1 0xC0 MLOAD DUP2 DUP2 DUP2 PUSH1 0xE1 ADD MSTORE PUSH2 0x314 ADD MSTORE RETURN JUMPDEST PUSH0 DUP1 REVERT JUMPDEST PUSH4 0x4E487B71 PUSH1 0xE0 SHL PUSH0 MSTORE PUSH1 0x41 PUSH1 0x4 MSTORE PUSH1 0x24 PUSH0 REVERT JUMPDEST MLOAD SWAP1 PUSH1 0x1 PUSH1 0x1 PUSH1 0xA0 SHL SUB DUP3 AND DUP3 SUB PUSH2 0xD4 JUMPI JUMP INVALID PUSH1 0x80 DUP1 PUSH1 0x40 MSTORE PUSH1 0x4 CALLDATASIZE LT ISZERO PUSH2 0x12 JUMPI PUSH0 DUP1 REVERT JUMPDEST PUSH0 SWAP1 PUSH0 CALLDATALOAD PUSH1 0xE0 SHR SWAP1 DUP2 PUSH4 0x2D380CCA EQ PUSH2 0x78A JUMPI POP DUP1 PUSH4 0x41D1DE97 EQ PUSH2 0x712 JUMPI DUP1 PUSH4 0x5B16EBB7 EQ PUSH2 0x6D5 JUMPI DUP1 PUSH4 0x6B0CE9EA EQ PUSH2 0x691 JUMPI DUP1 PUSH4 0x704B6C02 EQ PUSH2 0x5DD JUMPI DUP1 PUSH4 0x8EEC5D70 EQ PUSH2 0x5C0 JUMPI DUP1 PUSH4 0xA98AD46C EQ PUSH2 0x57C JUMPI DUP1 PUSH4 0xAE808E80 EQ PUSH2 0x1FF JUMPI DUP1 PUSH4 0xBBEF6F90 EQ PUSH2 0x19E JUMPI DUP1 PUSH4 0xD88FF1F4 EQ PUSH2 0x110 JUMPI DUP1 PUSH4 0xE621FF8A EQ PUSH2 0xCB JUMPI PUSH4 0xF851A440 EQ PUSH2 0xA2 JUMPI PUSH0 DUP1 REVERT JUMPDEST CALLVALUE PUSH2 0xC8 JUMPI DUP1 PUSH1 0x3 NOT CALLDATASIZE ADD SLT PUSH2 0xC8 JUMPI SLOAD PUSH1 0x40 MLOAD PUSH1 0x1 PUSH1 0x1 PUSH1 0xA0 SHL SUB SWAP1 SWAP2 AND DUP2 MSTORE PUSH1 0x20 SWAP1 RETURN JUMPDEST DUP1 REVERT JUMPDEST POP CALLVALUE PUSH2 0xC8 JUMPI DUP1 PUSH1 0x3 NOT CALLDATASIZE ADD SLT PUSH2 0xC8 JUMPI PUSH1 0x40 MLOAD PUSH32 0x0 PUSH1 0x1 PUSH1 0x1 PUSH1 0xA0 SHL SUB AND DUP2 MSTORE PUSH1 0x20 SWAP1 RETURN JUMPDEST POP CALLVALUE PUSH2 0xC8 JUMPI DUP1 PUSH1 0x3 NOT CALLDATASIZE ADD SLT PUSH2 0xC8 JUMPI PUSH1 0x40 MLOAD DUP1 SWAP2 PUSH1 0x20 PUSH1 0x1 SLOAD SWAP3 DUP4 DUP2 MSTORE ADD SWAP2 PUSH1 0x1 DUP3 MSTORE PUSH32 0xB10E2D527612073B26EECDFD717E6A320CF44B4AFAC2B0732D9FCBE2B7FA0CF6 SWAP2 JUMPDEST DUP2 DUP2 LT PUSH2 0x17F JUMPI PUSH2 0x17B DUP6 PUSH2 0x16F DUP2 DUP8 SUB DUP3 PUSH2 0x86D JUMP JUMPDEST PUSH1 0x40 MLOAD SWAP2 DUP3 SWAP2 DUP3 PUSH2 0x816 JUMP JUMPDEST SUB SWAP1 RETURN JUMPDEST DUP3 SLOAD PUSH1 0x1 PUSH1 0x1 PUSH1 0xA0 SHL SUB AND DUP5 MSTORE PUSH1 0x20 SWAP1 SWAP4 ADD SWAP3 PUSH1 0x1 SWAP3 DUP4 ADD SWAP3 ADD PUSH2 0x158 JUMP JUMPDEST POP CALLVALUE PUSH2 0xC8 JUMPI PUSH1 0x40 CALLDATASIZE PUSH1 0x3 NOT ADD SLT PUSH2 0xC8 JUMPI PUSH2 0x1B8 PUSH2 0x800 JUMP JUMPDEST PUSH1 0x1 PUSH1 0x1 PUSH1 0xA0 SHL SUB AND DUP2 MSTORE PUSH1 0x2 PUSH1 0x20 MSTORE PUSH1 0x40 DUP2 KECCAK256 DUP1 SLOAD PUSH1 0x24 CALLDATALOAD SWAP3 SWAP1 DUP4 LT ISZERO PUSH2 0xC8 JUMPI PUSH1 0x20 PUSH2 0x1E6 DUP5 DUP5 PUSH2 0x858 JUMP JUMPDEST SWAP1 SLOAD PUSH1 0x40 MLOAD PUSH1 0x3 SWAP3 SWAP1 SWAP3 SHL SHR PUSH1 0x1 PUSH1 0x1 PUSH1 0xA0 SHL SUB AND DUP2 MSTORE RETURN JUMPDEST POP CALLVALUE PUSH2 0x532 JUMPI PUSH1 0xE0 CALLDATASIZE PUSH1 0x3 NOT ADD SLT PUSH2 0x532 JUMPI PUSH2 0x219 PUSH2 0x800 JUMP JUMPDEST PUSH1 0x24 CALLDATALOAD PUSH8 0xFFFFFFFFFFFFFFFF DUP2 GT PUSH2 0x532 JUMPI CALLDATASIZE PUSH1 0x23 DUP3 ADD SLT ISZERO PUSH2 0x532 JUMPI DUP1 PUSH1 0x4 ADD CALLDATALOAD PUSH8 0xFFFFFFFFFFFFFFFF DUP2 GT PUSH2 0x568 JUMPI PUSH1 0x40 MLOAD SWAP2 PUSH2 0x262 PUSH1 0x1F DUP4 ADD PUSH1 0x1F NOT AND PUSH1 0x20 ADD DUP5 PUSH2 0x86D JUMP JUMPDEST DUP2 DUP4 MSTORE CALLDATASIZE PUSH1 0x24 DUP4 DUP4 ADD ADD GT PUSH2 0x532 JUMPI DUP2 PUSH0 SWAP3 PUSH1 0x24 PUSH1 0x20 SWAP4 ADD DUP4 DUP7 ADD CALLDATACOPY DUP4 ADD ADD MSTORE PUSH1 0x64 CALLDATALOAD SWAP1 PUSH1 0x84 CALLDATALOAD SWAP2 PUSH1 0xA4 CALLDATALOAD PUSH1 0x1 DUP1 PUSH1 0xA0 SHL SUB PUSH0 SLOAD AND SWAP5 PUSH1 0x40 MLOAD PUSH2 0x1C9D DUP1 DUP3 ADD DUP3 DUP2 LT PUSH8 0xFFFFFFFFFFFFFFFF DUP3 GT OR PUSH2 0x568 JUMPI DUP3 SWAP2 PUSH2 0x8B4 DUP4 CODECOPY PUSH1 0x1 PUSH1 0x1 PUSH1 0xA0 SHL SUB PUSH32 0x0 DUP2 AND DUP3 MSTORE PUSH32 0x0 DUP2 AND PUSH1 0x20 DUP4 ADD DUP2 SWAP1 MSTORE PUSH32 0x0 SWAP1 SWAP2 AND PUSH1 0x40 DUP4 ADD MSTORE PUSH1 0x60 DUP3 ADD SWAP10 SWAP1 SWAP10 MSTORE PUSH2 0x140 PUSH1 0x80 DUP3 ADD DUP2 SWAP1 MSTORE PUSH2 0x359 SWAP1 DUP3 ADD DUP9 PUSH2 0x88F JUMP JUMPDEST SWAP1 PUSH1 0x44 CALLDATALOAD PUSH1 0xA0 DUP3 ADD MSTORE DUP7 PUSH1 0xC0 DUP3 ADD MSTORE DUP9 PUSH1 0xE0 DUP3 ADD MSTORE DUP6 PUSH2 0x100 DUP3 ADD MSTORE PUSH2 0x120 PUSH1 0xC4 CALLDATALOAD SWAP2 ADD MSTORE SUB SWAP1 PUSH0 CREATE DUP1 ISZERO PUSH2 0x527 JUMPI PUSH1 0x40 MLOAD PUSH4 0xD5391393 PUSH1 0xE0 SHL DUP2 MSTORE PUSH1 0x1 PUSH1 0x1 PUSH1 0xA0 SHL SUB SWAP2 SWAP1 SWAP2 AND SWAP7 SWAP1 PUSH1 0x20 DUP2 PUSH1 0x4 DUP2 DUP6 GAS STATICCALL SWAP1 DUP2 ISZERO PUSH2 0x527 JUMPI PUSH0 SWAP2 PUSH2 0x536 JUMPI JUMPDEST POP DUP2 EXTCODESIZE ISZERO PUSH2 0x532 JUMPI PUSH0 SWAP2 PUSH1 0x44 DUP4 SWAP3 PUSH1 0x40 MLOAD SWAP5 DUP6 SWAP4 DUP5 SWAP3 PUSH4 0x2F2FF15D PUSH1 0xE0 SHL DUP5 MSTORE PUSH1 0x4 DUP5 ADD MSTORE DUP13 PUSH1 0x24 DUP5 ADD MSTORE GAS CALL DUP1 ISZERO PUSH2 0x527 JUMPI PUSH2 0x512 JUMPI JUMPDEST POP PUSH1 0x1 SLOAD PUSH1 0x1 PUSH1 0x40 SHL DUP2 LT ISZERO PUSH2 0x4FE JUMPI DUP1 PUSH1 0x1 PUSH2 0x414 SWAP3 ADD PUSH1 0x1 SSTORE PUSH1 0x1 PUSH2 0x858 JUMP JUMPDEST DUP2 SLOAD PUSH1 0x1 PUSH1 0x1 PUSH1 0xA0 SHL SUB PUSH1 0x3 SWAP3 SWAP1 SWAP3 SHL DUP3 DUP2 SHL NOT SWAP1 SWAP2 AND SWAP1 DUP10 SWAP1 SHL OR SWAP1 SWAP2 SSTORE AND DUP1 DUP8 MSTORE PUSH1 0x2 PUSH1 0x20 MSTORE PUSH1 0x40 DUP8 KECCAK256 DUP1 SLOAD SWAP2 SWAP6 SWAP2 SWAP1 PUSH1 0x1 PUSH1 0x40 SHL DUP3 LT ISZERO PUSH2 0x4EA JUMPI SWAP3 DUP8 SWAP6 SWAP3 PUSH1 0x40 PUSH1 0x20 SWAP11 PUSH2 0x490 DUP6 PUSH2 0x4D0 SWAP9 PUSH1 0x1 PUSH32 0xBB7692B5CCDF241714F597949C7D2C2148AFC9532ABBBF001FF1D28CB3310DA7 SWAP12 SWAP9 ADD DUP2 SSTORE PUSH2 0x858 JUMP JUMPDEST DUP2 SLOAD SWAP1 PUSH1 0x3 SHL SWAP1 DUP12 DUP3 SHL SWAP2 PUSH1 0x1 DUP1 PUSH1 0xA0 SHL SUB SWAP1 SHL NOT AND OR SWAP1 SSTORE DUP9 DUP2 MSTORE PUSH1 0x3 DUP13 MSTORE KECCAK256 PUSH1 0x1 PUSH1 0xFF NOT DUP3 SLOAD AND OR SWAP1 SSTORE PUSH1 0x40 MLOAD SWAP5 DUP6 SWAP5 PUSH1 0x80 DUP7 MSTORE PUSH1 0x80 DUP7 ADD SWAP1 PUSH2 0x88F JUMP JUMPDEST SWAP3 DUP11 DUP6 ADD MSTORE PUSH1 0x40 DUP5 ADD MSTORE PUSH1 0x60 DUP4 ADD MSTORE SUB SWAP1 LOG3 PUSH1 0x40 MLOAD SWAP1 DUP2 MSTORE RETURN JUMPDEST PUSH4 0x4E487B71 PUSH1 0xE0 SHL DUP10 MSTORE PUSH1 0x41 PUSH1 0x4 MSTORE PUSH1 0x24 DUP10 REVERT JUMPDEST PUSH4 0x4E487B71 PUSH1 0xE0 SHL DUP9 MSTORE PUSH1 0x41 PUSH1 0x4 MSTORE PUSH1 0x24 DUP9 REVERT JUMPDEST PUSH2 0x51F SWAP2 SWAP8 POP PUSH0 SWAP1 PUSH2 0x86D JUMP JUMPDEST PUSH0 SWAP6 PUSH0 PUSH2 0x3F2 JUMP JUMPDEST PUSH1 0x40 MLOAD RETURNDATASIZE PUSH0 DUP3 RETURNDATACOPY RETURNDATASIZE SWAP1 REVERT JUMPDEST PUSH0 DUP1 REVERT JUMPDEST SWAP1 POP PUSH1 0x20 DUP2 RETURNDATASIZE PUSH1 0x20 GT PUSH2 0x560 JUMPI JUMPDEST DUP2 PUSH2 0x551 PUSH1 0x20 SWAP4 DUP4 PUSH2 0x86D JUMP JUMPDEST DUP2 ADD SUB SLT PUSH2 0x532 JUMPI MLOAD PUSH0 PUSH2 0x3BA JUMP JUMPDEST RETURNDATASIZE SWAP2 POP PUSH2 0x544 JUMP JUMPDEST PUSH4 0x4E487B71 PUSH1 0xE0 SHL PUSH0 MSTORE PUSH1 0x41 PUSH1 0x4 MSTORE PUSH1 0x24 PUSH0 REVERT JUMPDEST CALLVALUE PUSH2 0x532 JUMPI PUSH0 CALLDATASIZE PUSH1 0x3 NOT ADD SLT PUSH2 0x532 JUMPI PUSH1 0x40 MLOAD PUSH32 0x0 PUSH1 0x1 PUSH1 0x1 PUSH1 0xA0 SHL SUB AND DUP2 MSTORE PUSH1 0x20 SWAP1 RETURN JUMPDEST CALLVALUE PUSH2 0x532 JUMPI PUSH0 CALLDATASIZE PUSH1 0x3 NOT ADD SLT PUSH2 0x532 JUMPI PUSH1 0x20 PUSH1 0x1 SLOAD PUSH1 0x40 MLOAD SWAP1 DUP2 MSTORE RETURN JUMPDEST CALLVALUE PUSH2 0x532 JUMPI PUSH1 0x20 CALLDATASIZE PUSH1 0x3 NOT ADD SLT PUSH2 0x532 JUMPI PUSH2 0x5F6 PUSH2 0x800 JUMP JUMPDEST PUSH0 SLOAD SWAP1 PUSH1 0x1 PUSH1 0x1 PUSH1 0xA0 SHL SUB DUP3 AND CALLER SUB PUSH2 0x65F JUMPI PUSH1 0x1 PUSH1 0x1 PUSH1 0xA0 SHL SUB AND SWAP1 DUP2 ISZERO PUSH2 0x628 JUMPI PUSH1 0x1 PUSH1 0x1 PUSH1 0xA0 SHL SUB NOT AND OR PUSH0 SSTORE STOP JUMPDEST PUSH1 0x40 MLOAD PUSH3 0x461BCD PUSH1 0xE5 SHL DUP2 MSTORE PUSH1 0x20 PUSH1 0x4 DUP3 ADD MSTORE PUSH1 0xF PUSH1 0x24 DUP3 ADD MSTORE PUSH15 0x496E76616C69642061646472657373 PUSH1 0x88 SHL PUSH1 0x44 DUP3 ADD MSTORE PUSH1 0x64 SWAP1 REVERT JUMPDEST PUSH1 0x40 MLOAD PUSH3 0x461BCD PUSH1 0xE5 SHL DUP2 MSTORE PUSH1 0x20 PUSH1 0x4 DUP3 ADD MSTORE PUSH1 0xA PUSH1 0x24 DUP3 ADD MSTORE PUSH10 0x27B7363C9030B236B4B7 PUSH1 0xB1 SHL PUSH1 0x44 DUP3 ADD MSTORE PUSH1 0x64 SWAP1 REVERT JUMPDEST CALLVALUE PUSH2 0x532 JUMPI PUSH0 CALLDATASIZE PUSH1 0x3 NOT ADD SLT PUSH2 0x532 JUMPI PUSH1 0x40 MLOAD PUSH32 0x0 PUSH1 0x1 PUSH1 0x1 PUSH1 0xA0 SHL SUB AND DUP2 MSTORE PUSH1 0x20 SWAP1 RETURN JUMPDEST CALLVALUE PUSH2 0x532 JUMPI PUSH1 0x20 CALLDATASIZE PUSH1 0x3 NOT ADD SLT PUSH2 0x532 JUMPI PUSH1 0x1 PUSH1 0x1 PUSH1 0xA0 SHL SUB PUSH2 0x6F6 PUSH2 0x800 JUMP JUMPDEST AND PUSH0 MSTORE PUSH1 0x3 PUSH1 0x20 MSTORE PUSH1 0x20 PUSH1 0xFF PUSH1 0x40 PUSH0 KECCAK256 SLOAD AND PUSH1 0x40 MLOAD SWAP1 ISZERO ISZERO DUP2 MSTORE RETURN JUMPDEST CALLVALUE PUSH2 0x532 JUMPI PUSH1 0x20 CALLDATASIZE PUSH1 0x3 NOT ADD SLT PUSH2 0x532 JUMPI PUSH1 0x4 CALLDATALOAD PUSH1 0x1 SLOAD DUP2 LT ISZERO PUSH2 0x532 JUMPI PUSH1 0x1 SLOAD DUP2 LT ISZERO PUSH2 0x776 JUMPI PUSH1 0x1 PUSH0 MSTORE PUSH32 0xB10E2D527612073B26EECDFD717E6A320CF44B4AFAC2B0732D9FCBE2B7FA0CF6 ADD SLOAD PUSH1 0x40 MLOAD PUSH1 0x1 PUSH1 0x1 PUSH1 0xA0 SHL SUB SWAP1 SWAP2 AND DUP2 MSTORE PUSH1 0x20 SWAP1 RETURN JUMPDEST PUSH4 0x4E487B71 PUSH1 0xE0 SHL PUSH0 MSTORE PUSH1 0x32 PUSH1 0x4 MSTORE PUSH1 0x24 PUSH0 REVERT JUMPDEST CALLVALUE PUSH2 0x532 JUMPI PUSH1 0x20 CALLDATASIZE PUSH1 0x3 NOT ADD SLT PUSH2 0x532 JUMPI PUSH1 0x1 PUSH1 0x1 PUSH1 0xA0 SHL SUB PUSH2 0x7AB PUSH2 0x800 JUMP JUMPDEST AND PUSH0 MSTORE PUSH1 0x2 PUSH1 0x20 MSTORE PUSH1 0x40 PUSH0 KECCAK256 DUP1 SLOAD DUP1 DUP4 MSTORE PUSH1 0x20 DUP4 ADD SWAP2 PUSH0 MSTORE PUSH1 0x20 PUSH0 KECCAK256 SWAP1 PUSH0 JUMPDEST DUP2 DUP2 LT PUSH2 0x7E1 JUMPI PUSH2 0x17B DUP6 PUSH2 0x16F DUP2 DUP8 SUB DUP3 PUSH2 0x86D JUMP JUMPDEST DUP3 SLOAD PUSH1 0x1 PUSH1 0x1 PUSH1 0xA0 SHL SUB AND DUP5 MSTORE PUSH1 0x20 SWAP1 SWAP4 ADD SWAP3 PUSH1 0x1 SWAP3 DUP4 ADD SWAP3 ADD PUSH2 0x7CA JUMP JUMPDEST PUSH1 0x4 CALLDATALOAD SWAP1 PUSH1 0x1 PUSH1 0x1 PUSH1 0xA0 SHL SUB DUP3 AND DUP3 SUB PUSH2 0x532 JUMPI JUMP JUMPDEST PUSH1 0x20 PUSH1 0x40 DUP2 DUP4 ADD SWAP3 DUP3 DUP2 MSTORE DUP5 MLOAD DUP1 SWAP5 MSTORE ADD SWAP3 ADD SWAP1 PUSH0 JUMPDEST DUP2 DUP2 LT PUSH2 0x839 JUMPI POP POP POP SWAP1 JUMP JUMPDEST DUP3 MLOAD PUSH1 0x1 PUSH1 0x1 PUSH1 0xA0 SHL SUB AND DUP5 MSTORE PUSH1 0x20 SWAP4 DUP5 ADD SWAP4 SWAP1 SWAP3 ADD SWAP2 PUSH1 0x1 ADD PUSH2 0x82C JUMP JUMPDEST DUP1 SLOAD DUP3 LT ISZERO PUSH2 0x776 JUMPI PUSH0 MSTORE PUSH1 0x20 PUSH0 KECCAK256 ADD SWAP1 PUSH0 SWAP1 JUMP JUMPDEST SWAP1 PUSH1 0x1F DUP1 NOT SWAP2 ADD AND DUP2 ADD SWAP1 DUP2 LT PUSH8 0xFFFFFFFFFFFFFFFF DUP3 GT OR PUSH2 0x568 JUMPI PUSH1 0x40 MSTORE JUMP JUMPDEST DUP1 MLOAD DUP1 DUP4 MSTORE PUSH1 0x20 SWAP3 SWAP2 DUP2 SWAP1 DUP5 ADD DUP5 DUP5 ADD MCOPY PUSH0 DUP3 DUP3 ADD DUP5 ADD MSTORE PUSH1 0x1F ADD PUSH1 0x1F NOT AND ADD ADD SWAP1 JUMP INVALID PUSH2 0x120 PUSH1 0x40 MSTORE CALLVALUE PUSH2 0x36E JUMPI PUSH2 0x1C9D DUP1 CODESIZE SUB DUP1 PUSH2 0x1A DUP2 PUSH2 0x372 JUMP JUMPDEST SWAP3 DUP4 CODECOPY DUP2 ADD SWAP1 PUSH2 0x140 DUP2 DUP4 SUB SLT PUSH2 0x36E JUMPI PUSH2 0x34 DUP2 PUSH2 0x397 JUMP JUMPDEST PUSH2 0x40 PUSH1 0x20 DUP4 ADD PUSH2 0x397 JUMP JUMPDEST PUSH2 0x4C PUSH1 0x40 DUP5 ADD PUSH2 0x397 JUMP JUMPDEST PUSH2 0x58 PUSH1 0x60 DUP6 ADD PUSH2 0x397 JUMP JUMPDEST PUSH1 0x80 DUP6 ADD MLOAD SWAP1 SWAP6 SWAP1 PUSH1 0x1 PUSH1 0x1 PUSH1 0x40 SHL SUB DUP2 GT PUSH2 0x36E JUMPI DUP6 ADD DUP2 PUSH1 0x1F DUP3 ADD SLT ISZERO PUSH2 0x36E JUMPI DUP1 MLOAD SWAP1 PUSH1 0x1 PUSH1 0x1 PUSH1 0x40 SHL SUB DUP3 GT PUSH2 0x347 JUMPI PUSH2 0x9F PUSH1 0x1F DUP4 ADD PUSH1 0x1F NOT AND PUSH1 0x20 ADD PUSH2 0x372 JUMP JUMPDEST SWAP3 DUP3 DUP5 MSTORE PUSH1 0x20 DUP4 DUP4 ADD ADD GT PUSH2 0x36E JUMPI DUP2 PUSH0 SWAP3 PUSH1 0x20 DUP1 SWAP4 ADD DUP4 DUP7 ADD MCOPY DUP4 ADD ADD MSTORE PUSH1 0xA0 DUP6 ADD MLOAD SWAP2 PUSH1 0xC0 DUP7 ADD MLOAD SWAP4 PUSH1 0xE0 DUP8 ADD MLOAD SWAP6 PUSH2 0x120 PUSH2 0x100 DUP10 ADD MLOAD SWAP9 ADD MLOAD SWAP9 CALLER ISZERO PUSH2 0x35B JUMPI PUSH0 DUP1 SLOAD CALLER PUSH1 0x1 PUSH1 0x1 PUSH1 0xA0 SHL SUB NOT DUP3 AND DUP2 OR DUP4 SSTORE SWAP2 PUSH1 0x1 PUSH1 0x1 PUSH1 0xA0 SHL SUB SWAP1 SWAP2 AND SWAP1 PUSH32 0x8BE0079C531659141344CD1FD0A4F28419497F9722A3DAAFE3B4186F6B6457E0 SWAP1 DUP1 LOG3 PUSH1 0x1 DUP1 SSTORE CALLER PUSH1 0xE0 MSTORE PUSH2 0x100 MSTORE PUSH1 0x1 PUSH1 0x1 PUSH1 0xA0 SHL SUB SWAP1 DUP2 AND PUSH1 0x80 MSTORE SWAP1 DUP2 AND PUSH1 0xA0 MSTORE AND PUSH1 0xC0 MSTORE DUP1 MLOAD SWAP1 PUSH1 0x1 PUSH1 0x1 PUSH1 0x40 SHL SUB DUP3 GT PUSH2 0x347 JUMPI PUSH1 0x2 SLOAD SWAP1 PUSH1 0x1 DUP3 DUP2 SHR SWAP3 AND DUP1 ISZERO PUSH2 0x33D JUMPI JUMPDEST PUSH1 0x20 DUP4 LT EQ PUSH2 0x329 JUMPI DUP2 PUSH1 0x1F DUP5 SWAP4 GT PUSH2 0x2BB JUMPI JUMPDEST POP PUSH1 0x20 SWAP1 PUSH1 0x1F DUP4 GT PUSH1 0x1 EQ PUSH2 0x255 JUMPI PUSH0 SWAP3 PUSH2 0x24A JUMPI JUMPDEST POP POP DUP2 PUSH1 0x1 SHL SWAP2 PUSH0 NOT SWAP1 PUSH1 0x3 SHL SHR NOT AND OR PUSH1 0x2 SSTORE JUMPDEST PUSH1 0x3 SSTORE PUSH1 0x4 SSTORE PUSH1 0x5 SSTORE PUSH1 0x6 SSTORE PUSH1 0x7 SSTORE TIMESTAMP PUSH1 0x8 SSTORE PUSH1 0x40 MLOAD PUSH2 0x18F1 SWAP1 DUP2 PUSH2 0x3AC DUP3 CODECOPY PUSH1 0x80 MLOAD DUP2 DUP2 DUP2 PUSH2 0x2D4 ADD MSTORE DUP2 DUP2 PUSH2 0x5D1 ADD MSTORE DUP2 DUP2 PUSH2 0x7C1 ADD MSTORE DUP2 DUP2 PUSH2 0x956 ADD MSTORE PUSH2 0x179F ADD MSTORE PUSH1 0xA0 MLOAD DUP2 DUP2 DUP2 PUSH2 0xA27 ADD MSTORE PUSH2 0xF4A ADD MSTORE PUSH1 0xC0 MLOAD DUP2 DUP2 DUP2 PUSH2 0x4FB ADD MSTORE DUP2 DUP2 PUSH2 0xD2A ADD MSTORE PUSH2 0x15C5 ADD MSTORE PUSH1 0xE0 MLOAD DUP2 PUSH2 0x75E ADD MSTORE PUSH2 0x100 MLOAD DUP2 DUP2 DUP2 PUSH2 0x1B4 ADD MSTORE DUP2 DUP2 PUSH2 0x1FD ADD MSTORE DUP2 DUP2 PUSH2 0x249 ADD MSTORE DUP2 DUP2 PUSH2 0x589 ADD MSTORE PUSH2 0x11D2 ADD MSTORE RETURN JUMPDEST ADD MLOAD SWAP1 POP PUSH0 DUP1 PUSH2 0x198 JUMP JUMPDEST PUSH1 0x2 PUSH0 SWAP1 DUP2 MSTORE DUP3 DUP2 KECCAK256 SWAP4 POP PUSH1 0x1F NOT DUP6 AND SWAP1 JUMPDEST DUP2 DUP2 LT PUSH2 0x2A3 JUMPI POP SWAP1 DUP5 PUSH1 0x1 SWAP6 SWAP5 SWAP4 SWAP3 LT PUSH2 0x28B JUMPI JUMPDEST POP POP POP DUP2 SHL ADD PUSH1 0x2 SSTORE PUSH2 0x1AD JUMP JUMPDEST ADD MLOAD PUSH0 NOT PUSH1 0xF8 DUP5 PUSH1 0x3 SHL AND SHR NOT AND SWAP1 SSTORE PUSH0 DUP1 DUP1 PUSH2 0x27D JUMP JUMPDEST SWAP3 SWAP4 PUSH1 0x20 PUSH1 0x1 DUP2 SWAP3 DUP8 DUP7 ADD MLOAD DUP2 SSTORE ADD SWAP6 ADD SWAP4 ADD PUSH2 0x267 JUMP JUMPDEST PUSH1 0x2 PUSH0 MSTORE SWAP1 SWAP2 POP PUSH32 0x405787FA12A823E0F2B7631CC41B3BA8828B3321CA811111FA75CD3AA3BB5ACE PUSH1 0x1F DUP5 ADD PUSH1 0x5 SHR DUP2 ADD SWAP2 PUSH1 0x20 DUP6 LT PUSH2 0x31F JUMPI JUMPDEST SWAP1 PUSH1 0x1F DUP6 SWAP5 SWAP4 SWAP3 ADD PUSH1 0x5 SHR ADD SWAP1 JUMPDEST DUP2 DUP2 LT PUSH2 0x311 JUMPI POP PUSH2 0x182 JUMP JUMPDEST PUSH0 DUP2 SSTORE DUP5 SWAP4 POP PUSH1 0x1 ADD PUSH2 0x304 JUMP JUMPDEST SWAP1 SWAP2 POP DUP2 SWAP1 PUSH2 0x2F6 JUMP JUMPDEST PUSH4 0x4E487B71 PUSH1 0xE0 SHL PUSH0 MSTORE PUSH1 0x22 PUSH1 0x4 MSTORE PUSH1 0x24 PUSH0 REVERT JUMPDEST SWAP2 PUSH1 0x7F AND SWAP2 PUSH2 0x16E JUMP JUMPDEST PUSH4 0x4E487B71 PUSH1 0xE0 SHL PUSH0 MSTORE PUSH1 0x41 PUSH1 0x4 MSTORE PUSH1 0x24 PUSH0 REVERT JUMPDEST PUSH4 0x1E4FBDF7 PUSH1 0xE0 SHL PUSH0 MSTORE PUSH0 PUSH1 0x4 MSTORE PUSH1 0x24 PUSH0 REVERT JUMPDEST PUSH0 DUP1 REVERT JUMPDEST PUSH1 0x40 MLOAD SWAP2 SWAP1 PUSH1 0x1F ADD PUSH1 0x1F NOT AND DUP3 ADD PUSH1 0x1 PUSH1 0x1 PUSH1 0x40 SHL SUB DUP2 GT DUP4 DUP3 LT OR PUSH2 0x347 JUMPI PUSH1 0x40 MSTORE JUMP JUMPDEST MLOAD SWAP1 PUSH1 0x1 PUSH1 0x1 PUSH1 0xA0 SHL SUB DUP3 AND DUP3 SUB PUSH2 0x36E JUMPI JUMP INVALID PUSH1 0x80 DUP1 PUSH1 0x40 MSTORE PUSH1 0x4 CALLDATASIZE LT ISZERO PUSH2 0x12 JUMPI PUSH0 DUP1 REVERT JUMPDEST PUSH0 SWAP1 PUSH0 CALLDATALOAD PUSH1 0xE0 SHR SWAP1 DUP2 PUSH4 0x231141A EQ PUSH2 0x1299 JUMPI POP DUP1 PUSH4 0x1209B1F6 EQ PUSH2 0x127C JUMPI DUP1 PUSH4 0x18A7EA5F EQ PUSH2 0x125F JUMPI DUP1 PUSH4 0x1B55B2A8 EQ PUSH2 0x11BC JUMPI DUP1 PUSH4 0x24924BF7 EQ PUSH2 0x119F JUMPI DUP1 PUSH4 0x35C1D349 EQ PUSH2 0x115D JUMPI DUP1 PUSH4 0x42E94C90 EQ PUSH2 0x1121 JUMPI DUP1 PUSH4 0x4BFBE5DF EQ PUSH2 0x1104 JUMPI DUP1 PUSH4 0x5AA68AC0 EQ PUSH2 0x103C JUMPI DUP1 PUSH4 0x5E098F05 EQ PUSH2 0x101A JUMPI DUP1 PUSH4 0x60246C88 EQ PUSH2 0xF79 JUMPI DUP1 PUSH4 0x6B0CE9EA EQ PUSH2 0xF35 JUMPI DUP1 PUSH4 0x6EC21CC8 EQ PUSH2 0xF18 JUMPI DUP1 PUSH4 0x715018A6 EQ PUSH2 0xEC1 JUMPI DUP1 PUSH4 0x7D183F3D EQ PUSH2 0xCAC JUMPI DUP1 PUSH4 0x8043C9C0 EQ PUSH2 0xC79 JUMPI DUP1 PUSH4 0x8371E6B4 EQ PUSH2 0x8C3 JUMPI DUP1 PUSH4 0x877F4E12 EQ PUSH2 0x881 JUMPI DUP1 PUSH4 0x8D4E4083 EQ PUSH2 0x85B JUMPI DUP1 PUSH4 0x8DA5CB5B EQ PUSH2 0x834 JUMPI DUP1 PUSH4 0x95EE1221 EQ PUSH2 0x80E JUMPI DUP1 PUSH4 0x991DEF3C EQ PUSH2 0x7F0 JUMPI DUP1 PUSH4 0xA98AD46C EQ PUSH2 0x7AB JUMPI DUP1 PUSH4 0xAD605729 EQ PUSH2 0x78D JUMPI DUP1 PUSH4 0xC45A0155 EQ PUSH2 0x748 JUMPI DUP1 PUSH4 0xCCBAC9F5 EQ PUSH2 0x72A JUMPI DUP1 PUSH4 0xCF09E0D0 EQ PUSH2 0x70C JUMPI DUP1 PUSH4 0xDB2E21BC EQ PUSH2 0x576 JUMPI DUP1 PUSH4 0xDFBF53AE EQ PUSH2 0x54D JUMPI DUP1 PUSH4 0xE5B8BDAC EQ PUSH2 0x52A JUMPI DUP1 PUSH4 0xE621FF8A EQ PUSH2 0x4E5 JUMPI DUP1 PUSH4 0xF2FDE38B EQ PUSH2 0x457 JUMPI DUP1 PUSH4 0xF648B99E EQ PUSH2 0x236 JUMPI DUP1 PUSH4 0xF8413B07 EQ PUSH2 0x1E6 JUMPI PUSH4 0xF851A440 EQ PUSH2 0x19F JUMPI PUSH0 DUP1 REVERT JUMPDEST CALLVALUE PUSH2 0x1E3 JUMPI DUP1 PUSH1 0x3 NOT CALLDATASIZE ADD SLT PUSH2 0x1E3 JUMPI PUSH1 0x40 MLOAD PUSH32 0x0 PUSH1 0x1 PUSH1 0x1 PUSH1 0xA0 SHL SUB AND DUP2 MSTORE PUSH1 0x20 SWAP1 RETURN JUMPDEST DUP1 REVERT JUMPDEST POP CALLVALUE PUSH2 0x1E3 JUMPI DUP1 PUSH1 0x3 NOT CALLDATASIZE ADD SLT PUSH2 0x1E3 JUMPI PUSH2 0x22B CALLER PUSH32 0x0 PUSH1 0x1 PUSH1 0x1 PUSH1 0xA0 SHL SUB AND EQ PUSH2 0x13F3 JUMP JUMPDEST PUSH2 0x233 PUSH2 0x150C JUMP JUMPDEST DUP1 RETURN JUMPDEST POP CALLVALUE PUSH2 0x1E3 JUMPI DUP1 PUSH1 0x3 NOT CALLDATASIZE ADD SLT PUSH2 0x1E3 JUMPI PUSH32 0x0 PUSH2 0x27C CALLER PUSH1 0x1 PUSH1 0x1 PUSH1 0xA0 SHL SUB DUP4 AND EQ PUSH2 0x13F3 JUMP JUMPDEST PUSH1 0xC SLOAD PUSH2 0x28F PUSH1 0xFF DUP3 PUSH1 0xA8 SHR AND ISZERO PUSH2 0x146C JUMP JUMPDEST PUSH2 0x29F PUSH1 0xFF DUP3 PUSH1 0xA0 SHR AND ISZERO PUSH2 0x142C JUMP JUMPDEST PUSH1 0x1 PUSH1 0x1 PUSH1 0xA0 SHL SUB DUP2 AND ISZERO PUSH2 0x41C JUMPI PUSH1 0xFF PUSH1 0xA0 SHL NOT AND PUSH1 0x1 PUSH1 0xA0 SHL OR PUSH1 0xC SSTORE PUSH1 0x40 MLOAD PUSH4 0x70A08231 PUSH1 0xE0 SHL DUP2 MSTORE ADDRESS PUSH1 0x4 DUP3 ADD MSTORE SWAP1 PUSH32 0x0 PUSH1 0x1 PUSH1 0x1 PUSH1 0xA0 SHL SUB AND SWAP1 PUSH1 0x20 DUP4 PUSH1 0x24 DUP2 DUP6 GAS STATICCALL SWAP3 DUP4 ISZERO PUSH2 0x411 JUMPI DUP5 SWAP4 PUSH2 0x3D6 JUMPI JUMPDEST POP PUSH1 0x40 MLOAD PUSH4 0xA9059CBB PUSH1 0xE0 SHL DUP2 MSTORE PUSH1 0x1 PUSH1 0x1 PUSH1 0xA0 SHL SUB SWAP2 SWAP1 SWAP2 AND PUSH1 0x4 DUP3 ADD MSTORE PUSH1 0x24 DUP2 ADD DUP4 SWAP1 MSTORE SWAP1 PUSH1 0x20 SWAP1 DUP3 SWAP1 PUSH1 0x44 SWAP1 DUP3 SWAP1 DUP8 SWAP1 GAS CALL DUP1 ISZERO PUSH2 0x3CB JUMPI PUSH2 0x360 SWAP2 DUP5 SWAP2 PUSH2 0x39C JUMPI JUMPDEST POP PUSH2 0x14CE JUMP JUMPDEST PUSH1 0xC SLOAD PUSH1 0x40 MLOAD SWAP2 DUP3 MSTORE PUSH1 0x1 PUSH1 0x1 PUSH1 0xA0 SHL SUB AND SWAP1 PUSH32 0x46905EAC8CF77FFEEA71D53EC1EDFEFF61D4DE579FB9E1F58235A3397EF302D5 SWAP1 PUSH1 0x20 SWAP1 LOG2 DUP1 RETURN JUMPDEST PUSH2 0x3BE SWAP2 POP PUSH1 0x20 RETURNDATASIZE PUSH1 0x20 GT PUSH2 0x3C4 JUMPI JUMPDEST PUSH2 0x3B6 DUP2 DUP4 PUSH2 0x12EF JUMP JUMPDEST DUP2 ADD SWAP1 PUSH2 0x14A9 JUMP JUMPDEST PUSH0 PUSH2 0x35A JUMP JUMPDEST POP RETURNDATASIZE PUSH2 0x3AC JUMP JUMPDEST PUSH1 0x40 MLOAD RETURNDATASIZE DUP6 DUP3 RETURNDATACOPY RETURNDATASIZE SWAP1 REVERT JUMPDEST SWAP1 SWAP2 SWAP3 POP PUSH1 0x20 DUP2 RETURNDATASIZE PUSH1 0x20 GT PUSH2 0x409 JUMPI JUMPDEST DUP2 PUSH2 0x3F3 PUSH1 0x20 SWAP4 DUP4 PUSH2 0x12EF JUMP JUMPDEST DUP2 ADD SUB SLT PUSH2 0x405 JUMPI MLOAD SWAP2 SWAP1 PUSH1 0x20 PUSH2 0x314 JUMP JUMPDEST PUSH0 DUP1 REVERT JUMPDEST RETURNDATASIZE SWAP2 POP PUSH2 0x3E6 JUMP JUMPDEST PUSH1 0x40 MLOAD RETURNDATASIZE DUP7 DUP3 RETURNDATACOPY RETURNDATASIZE SWAP1 REVERT JUMPDEST PUSH1 0x40 MLOAD PUSH3 0x461BCD PUSH1 0xE5 SHL DUP2 MSTORE PUSH1 0x20 PUSH1 0x4 DUP3 ADD MSTORE PUSH1 0x13 PUSH1 0x24 DUP3 ADD MSTORE PUSH19 0x15DA5B9B995C881B9BDD081CD95B1958DD1959 PUSH1 0x6A SHL PUSH1 0x44 DUP3 ADD MSTORE PUSH1 0x64 SWAP1 REVERT JUMPDEST POP CALLVALUE PUSH2 0x1E3 JUMPI PUSH1 0x20 CALLDATASIZE PUSH1 0x3 NOT ADD SLT PUSH2 0x1E3 JUMPI PUSH1 0x4 CALLDATALOAD PUSH1 0x1 PUSH1 0x1 PUSH1 0xA0 SHL SUB DUP2 AND SWAP1 DUP2 SWAP1 SUB PUSH2 0x4E1 JUMPI PUSH2 0x486 PUSH2 0x1895 JUMP JUMPDEST DUP1 ISZERO PUSH2 0x4CD JUMPI DUP2 SLOAD PUSH1 0x1 PUSH1 0x1 PUSH1 0xA0 SHL SUB NOT DUP2 AND DUP3 OR DUP4 SSTORE PUSH1 0x1 PUSH1 0x1 PUSH1 0xA0 SHL SUB AND PUSH32 0x8BE0079C531659141344CD1FD0A4F28419497F9722A3DAAFE3B4186F6B6457E0 DUP4 DUP1 LOG3 DUP1 RETURN JUMPDEST PUSH4 0x1E4FBDF7 PUSH1 0xE0 SHL DUP3 MSTORE PUSH1 0x4 DUP3 SWAP1 MSTORE PUSH1 0x24 DUP3 REVERT JUMPDEST POP DUP1 REVERT JUMPDEST POP CALLVALUE PUSH2 0x1E3 JUMPI DUP1 PUSH1 0x3 NOT CALLDATASIZE ADD SLT PUSH2 0x1E3 JUMPI PUSH1 0x40 MLOAD PUSH32 0x0 PUSH1 0x1 PUSH1 0x1 PUSH1 0xA0 SHL SUB AND DUP2 MSTORE PUSH1 0x20 SWAP1 RETURN JUMPDEST POP CALLVALUE PUSH2 0x1E3 JUMPI DUP1 PUSH1 0x3 NOT CALLDATASIZE ADD SLT PUSH2 0x1E3 JUMPI PUSH1 0x20 PUSH1 0xFF PUSH1 0x10 SLOAD AND PUSH1 0x40 MLOAD SWAP1 ISZERO ISZERO DUP2 MSTORE RETURN JUMPDEST POP CALLVALUE PUSH2 0x1E3 JUMPI DUP1 PUSH1 0x3 NOT CALLDATASIZE ADD SLT PUSH2 0x1E3 JUMPI PUSH1 0xC SLOAD PUSH1 0x40 MLOAD PUSH1 0x1 PUSH1 0x1 PUSH1 0xA0 SHL SUB SWAP1 SWAP2 AND DUP2 MSTORE PUSH1 0x20 SWAP1 RETURN JUMPDEST POP CALLVALUE PUSH2 0x1E3 JUMPI DUP1 PUSH1 0x3 NOT CALLDATASIZE ADD SLT PUSH2 0x1E3 JUMPI PUSH32 0x0 PUSH2 0x5BC CALLER PUSH1 0x1 PUSH1 0x1 PUSH1 0xA0 SHL SUB DUP4 AND EQ PUSH2 0x13F3 JUMP JUMPDEST PUSH1 0x40 MLOAD PUSH4 0x70A08231 PUSH1 0xE0 SHL DUP2 MSTORE ADDRESS PUSH1 0x4 DUP3 ADD MSTORE PUSH32 0x0 PUSH1 0x1 PUSH1 0x1 PUSH1 0xA0 SHL SUB AND PUSH1 0x20 DUP3 PUSH1 0x24 DUP2 DUP5 GAS STATICCALL SWAP2 DUP3 ISZERO PUSH2 0x411 JUMPI DUP5 SWAP3 PUSH2 0x6D8 JUMPI JUMPDEST POP DUP2 ISZERO PUSH2 0x6A6 JUMPI PUSH1 0x40 MLOAD PUSH4 0xA9059CBB PUSH1 0xE0 SHL DUP2 MSTORE PUSH1 0x1 PUSH1 0x1 PUSH1 0xA0 SHL SUB SWAP4 SWAP1 SWAP4 AND PUSH1 0x4 DUP5 ADD MSTORE PUSH1 0x24 DUP4 ADD DUP3 SWAP1 MSTORE PUSH1 0x20 SWAP1 DUP4 SWAP1 PUSH1 0x44 SWAP1 DUP3 SWAP1 DUP8 SWAP1 GAS CALL SWAP1 DUP2 ISZERO PUSH2 0x3CB JUMPI PUSH2 0x685 PUSH1 0x20 SWAP3 PUSH32 0x8E9F10B004CE7E96C30B2445271DD45D41FCFACB742CF4843F1B790AFA7A7657 SWAP5 DUP7 SWAP2 PUSH2 0x68F JUMPI POP PUSH2 0x14CE JUMP JUMPDEST PUSH1 0x40 MLOAD SWAP1 DUP2 MSTORE LOG1 DUP1 RETURN JUMPDEST PUSH2 0x3BE SWAP2 POP DUP5 RETURNDATASIZE DUP7 GT PUSH2 0x3C4 JUMPI PUSH2 0x3B6 DUP2 DUP4 PUSH2 0x12EF JUMP JUMPDEST PUSH1 0x40 MLOAD PUSH3 0x461BCD PUSH1 0xE5 SHL DUP2 MSTORE PUSH1 0x20 PUSH1 0x4 DUP3 ADD MSTORE PUSH1 0xA PUSH1 0x24 DUP3 ADD MSTORE PUSH10 0x4E6F2062616C616E6365 PUSH1 0xB0 SHL PUSH1 0x44 DUP3 ADD MSTORE PUSH1 0x64 SWAP1 REVERT JUMPDEST SWAP1 SWAP2 POP PUSH1 0x20 DUP2 RETURNDATASIZE PUSH1 0x20 GT PUSH2 0x704 JUMPI JUMPDEST DUP2 PUSH2 0x6F4 PUSH1 0x20 SWAP4 DUP4 PUSH2 0x12EF JUMP JUMPDEST DUP2 ADD SUB SLT PUSH2 0x405 JUMPI MLOAD SWAP1 PUSH0 PUSH2 0x610 JUMP JUMPDEST RETURNDATASIZE SWAP2 POP PUSH2 0x6E7 JUMP JUMPDEST POP CALLVALUE PUSH2 0x1E3 JUMPI DUP1 PUSH1 0x3 NOT CALLDATASIZE ADD SLT PUSH2 0x1E3 JUMPI PUSH1 0x20 PUSH1 0x8 SLOAD PUSH1 0x40 MLOAD SWAP1 DUP2 MSTORE RETURN JUMPDEST POP CALLVALUE PUSH2 0x1E3 JUMPI DUP1 PUSH1 0x3 NOT CALLDATASIZE ADD SLT PUSH2 0x1E3 JUMPI PUSH1 0x20 PUSH1 0xF SLOAD PUSH1 0x40 MLOAD SWAP1 DUP2 MSTORE RETURN JUMPDEST POP CALLVALUE PUSH2 0x1E3 JUMPI DUP1 PUSH1 0x3 NOT CALLDATASIZE ADD SLT PUSH2 0x1E3 JUMPI PUSH1 0x40 MLOAD PUSH32 0x0 PUSH1 0x1 PUSH1 0x1 PUSH1 0xA0 SHL SUB AND DUP2 MSTORE PUSH1 0x20 SWAP1 RETURN JUMPDEST POP CALLVALUE PUSH2 0x1E3 JUMPI DUP1 PUSH1 0x3 NOT CALLDATASIZE ADD SLT PUSH2 0x1E3 JUMPI PUSH1 0x20 PUSH1 0x9 SLOAD PUSH1 0x40 MLOAD SWAP1 DUP2 MSTORE RETURN JUMPDEST POP CALLVALUE PUSH2 0x1E3 JUMPI DUP1 PUSH1 0x3 NOT CALLDATASIZE ADD SLT PUSH2 0x1E3 JUMPI PUSH1 0x40 MLOAD PUSH32 0x0 PUSH1 0x1 PUSH1 0x1 PUSH1 0xA0 SHL SUB AND DUP2 MSTORE PUSH1 0x20 SWAP1 RETURN JUMPDEST POP CALLVALUE PUSH2 0x1E3 JUMPI DUP1 PUSH1 0x3 NOT CALLDATASIZE ADD SLT PUSH2 0x1E3 JUMPI PUSH1 0x20 PUSH1 0x5 SLOAD PUSH1 0x40 MLOAD SWAP1 DUP2 MSTORE RETURN JUMPDEST POP CALLVALUE PUSH2 0x1E3 JUMPI DUP1 PUSH1 0x3 NOT CALLDATASIZE ADD SLT PUSH2 0x1E3 JUMPI PUSH1 0x20 PUSH1 0xFF PUSH1 0xC SLOAD PUSH1 0xA8 SHR AND PUSH1 0x40 MLOAD SWAP1 ISZERO ISZERO DUP2 MSTORE RETURN JUMPDEST POP CALLVALUE PUSH2 0x1E3 JUMPI DUP1 PUSH1 0x3 NOT CALLDATASIZE ADD SLT PUSH2 0x1E3 JUMPI SLOAD PUSH1 0x40 MLOAD PUSH1 0x1 PUSH1 0x1 PUSH1 0xA0 SHL SUB SWAP1 SWAP2 AND DUP2 MSTORE PUSH1 0x20 SWAP1 RETURN JUMPDEST POP CALLVALUE PUSH2 0x1E3 JUMPI DUP1 PUSH1 0x3 NOT CALLDATASIZE ADD SLT PUSH2 0x1E3 JUMPI PUSH1 0x20 PUSH1 0xFF PUSH1 0xC SLOAD PUSH1 0xA0 SHR AND PUSH1 0x40 MLOAD SWAP1 ISZERO ISZERO DUP2 MSTORE RETURN JUMPDEST POP CALLVALUE PUSH2 0x1E3 JUMPI PUSH1 0x20 CALLDATASIZE PUSH1 0x3 NOT ADD SLT PUSH2 0x1E3 JUMPI PUSH1 0x4 CALLDATALOAD PUSH1 0x1 PUSH1 0x1 PUSH1 0xA0 SHL SUB DUP2 AND SWAP1 DUP2 SWAP1 SUB PUSH2 0x4E1 JUMPI PUSH1 0x40 DUP3 PUSH1 0xFF SWAP3 PUSH1 0x20 SWAP5 MSTORE PUSH1 0xB DUP5 MSTORE KECCAK256 SLOAD AND PUSH1 0x40 MLOAD SWAP1 ISZERO ISZERO DUP2 MSTORE RETURN JUMPDEST POP CALLVALUE PUSH2 0x405 JUMPI PUSH0 CALLDATASIZE PUSH1 0x3 NOT ADD SLT PUSH2 0x405 JUMPI PUSH1 0x2 PUSH1 0x1 SLOAD EQ PUSH2 0xC6A JUMPI PUSH1 0x2 PUSH1 0x1 SSTORE PUSH1 0xFF PUSH1 0xC SLOAD PUSH2 0x8F7 DUP3 DUP3 PUSH1 0xA8 SHR AND ISZERO PUSH2 0x146C JUMP JUMPDEST PUSH1 0xA0 SHR AND PUSH2 0xC34 JUMPI PUSH1 0x7 SLOAD TIMESTAMP LT ISZERO PUSH2 0xC00 JUMPI CALLER PUSH0 MSTORE PUSH1 0xB PUSH1 0x20 MSTORE PUSH1 0xFF PUSH1 0x40 PUSH0 KECCAK256 SLOAD AND PUSH2 0xBCA JUMPI PUSH1 0x9 SLOAD PUSH1 0x6 SLOAD GT ISZERO PUSH2 0xB99 JUMPI PUSH1 0x5 SLOAD PUSH1 0x40 MLOAD PUSH4 0x23B872DD PUSH1 0xE0 SHL DUP2 MSTORE CALLER PUSH1 0x4 DUP3 ADD MSTORE ADDRESS PUSH1 0x24 DUP3 ADD MSTORE PUSH1 0x44 DUP2 ADD SWAP2 SWAP1 SWAP2 MSTORE PUSH1 0x20 DUP2 PUSH1 0x64 DUP2 PUSH0 PUSH32 0x0 PUSH1 0x1 PUSH1 0x1 PUSH1 0xA0 SHL SUB AND GAS CALL SWAP1 DUP2 ISZERO PUSH2 0xB0B JUMPI PUSH0 SWAP2 PUSH2 0xB7A JUMPI JUMPDEST POP ISZERO PUSH2 0xB3E JUMPI PUSH1 0x9 SLOAD PUSH9 0x10000000000000000 DUP2 LT ISZERO PUSH2 0xB2A JUMPI DUP1 PUSH1 0x1 PUSH2 0x9B8 SWAP3 ADD PUSH1 0x9 SSTORE PUSH2 0x12B3 JUMP JUMPDEST DUP2 SLOAD SWAP1 PUSH1 0x3 SHL SWAP1 CALLER DUP3 SHL SWAP2 PUSH1 0x1 DUP1 PUSH1 0xA0 SHL SUB SWAP1 SHL NOT AND OR SWAP1 SSTORE PUSH1 0x5 SLOAD CALLER PUSH0 MSTORE PUSH1 0xA PUSH1 0x20 MSTORE PUSH1 0x40 PUSH0 KECCAK256 SSTORE CALLER PUSH0 MSTORE PUSH1 0xB PUSH1 0x20 MSTORE PUSH1 0x40 PUSH0 KECCAK256 PUSH1 0x1 PUSH1 0xFF NOT DUP3 SLOAD AND OR SWAP1 SSTORE PUSH1 0x5 SLOAD PUSH2 0xA07 DUP2 PUSH1 0xD SLOAD PUSH2 0x14C1 JUMP JUMPDEST PUSH1 0xD SSTORE PUSH5 0xE8D4A51000 DUP2 MUL SWAP1 DUP1 DUP3 DIV PUSH5 0xE8D4A51000 EQ SWAP1 ISZERO OR ISZERO PUSH2 0xB16 JUMPI PUSH32 0x0 PUSH1 0x1 PUSH1 0x1 PUSH1 0xA0 SHL SUB AND DUP1 EXTCODESIZE ISZERO PUSH2 0x405 JUMPI PUSH0 DUP1 SWAP2 PUSH1 0xA4 PUSH1 0x40 MLOAD DUP1 SWAP5 DUP2 SWAP4 PUSH4 0x34FF2619 PUSH1 0xE2 SHL DUP4 MSTORE CALLER PUSH1 0x4 DUP5 ADD MSTORE DUP8 PUSH1 0x24 DUP5 ADD MSTORE PUSH1 0x60 PUSH1 0x44 DUP5 ADD MSTORE PUSH1 0x18 PUSH1 0x64 DUP5 ADD MSTORE PUSH32 0x4C75636B7920647261772070617274696369706174696F6E0000000000000000 PUSH1 0x84 DUP5 ADD MSTORE GAS CALL DUP1 ISZERO PUSH2 0xB0B JUMPI PUSH2 0xAF6 JUMPI JUMPDEST POP PUSH1 0x5 SLOAD SWAP1 PUSH1 0x40 MLOAD SWAP2 DUP3 MSTORE PUSH1 0x20 DUP3 ADD MSTORE PUSH32 0x51B7EDBAF76C2D4666BF0DEA3CD5214E035CDAED9A6CFB5B0FB0DBC1AC698CAA PUSH1 0x40 CALLER SWAP3 LOG2 PUSH1 0x1 DUP1 SSTORE DUP1 RETURN JUMPDEST PUSH2 0xB03 SWAP2 SWAP3 POP PUSH0 SWAP1 PUSH2 0x12EF JUMP JUMPDEST PUSH0 SWAP1 PUSH0 PUSH2 0xAB9 JUMP JUMPDEST PUSH1 0x40 MLOAD RETURNDATASIZE PUSH0 DUP3 RETURNDATACOPY RETURNDATASIZE SWAP1 REVERT JUMPDEST PUSH4 0x4E487B71 PUSH1 0xE0 SHL PUSH0 MSTORE PUSH1 0x11 PUSH1 0x4 MSTORE PUSH1 0x24 PUSH0 REVERT JUMPDEST PUSH4 0x4E487B71 PUSH1 0xE0 SHL PUSH0 MSTORE PUSH1 0x41 PUSH1 0x4 MSTORE PUSH1 0x24 PUSH0 REVERT JUMPDEST PUSH1 0x40 MLOAD PUSH3 0x461BCD PUSH1 0xE5 SHL DUP2 MSTORE PUSH1 0x20 PUSH1 0x4 DUP3 ADD MSTORE PUSH1 0x14 PUSH1 0x24 DUP3 ADD MSTORE PUSH20 0x1554D115081D1C985B9CD9995C8819985A5B1959 PUSH1 0x62 SHL PUSH1 0x44 DUP3 ADD MSTORE PUSH1 0x64 SWAP1 REVERT JUMPDEST PUSH2 0xB93 SWAP2 POP PUSH1 0x20 RETURNDATASIZE PUSH1 0x20 GT PUSH2 0x3C4 JUMPI PUSH2 0x3B6 DUP2 DUP4 PUSH2 0x12EF JUMP JUMPDEST PUSH0 PUSH2 0x98E JUMP JUMPDEST PUSH1 0x40 MLOAD PUSH3 0x461BCD PUSH1 0xE5 SHL DUP2 MSTORE PUSH1 0x20 PUSH1 0x4 DUP3 ADD MSTORE PUSH1 0x9 PUSH1 0x24 DUP3 ADD MSTORE PUSH9 0x141BDBDB08199D5B1B PUSH1 0xBA SHL PUSH1 0x44 DUP3 ADD MSTORE PUSH1 0x64 SWAP1 REVERT JUMPDEST PUSH1 0x40 MLOAD PUSH3 0x461BCD PUSH1 0xE5 SHL DUP2 MSTORE PUSH1 0x20 PUSH1 0x4 DUP3 ADD MSTORE PUSH1 0xE PUSH1 0x24 DUP3 ADD MSTORE PUSH14 0x105B1C9958591E481A9BDA5B9959 PUSH1 0x92 SHL PUSH1 0x44 DUP3 ADD MSTORE PUSH1 0x64 SWAP1 REVERT JUMPDEST PUSH1 0x40 MLOAD PUSH3 0x461BCD PUSH1 0xE5 SHL DUP2 MSTORE PUSH1 0x20 PUSH1 0x4 DUP3 ADD MSTORE PUSH1 0xC PUSH1 0x24 DUP3 ADD MSTORE PUSH12 0x141BDBDB08195E1C1A5C9959 PUSH1 0xA2 SHL PUSH1 0x44 DUP3 ADD MSTORE PUSH1 0x64 SWAP1 REVERT JUMPDEST PUSH1 0x40 MLOAD PUSH3 0x461BCD PUSH1 0xE5 SHL DUP2 MSTORE PUSH1 0x20 PUSH1 0x4 DUP3 ADD MSTORE PUSH1 0xE PUSH1 0x24 DUP3 ADD MSTORE PUSH14 0x141BDBDB08199A5B985B1A5E9959 PUSH1 0x92 SHL PUSH1 0x44 DUP3 ADD MSTORE PUSH1 0x64 SWAP1 REVERT JUMPDEST PUSH4 0x3EE5AEB5 PUSH1 0xE0 SHL PUSH0 MSTORE PUSH1 0x4 PUSH0 REVERT JUMPDEST CALLVALUE PUSH2 0x405 JUMPI PUSH0 CALLDATASIZE PUSH1 0x3 NOT ADD SLT PUSH2 0x405 JUMPI PUSH2 0xCA8 PUSH2 0xC94 PUSH2 0x1311 JUMP JUMPDEST PUSH1 0x40 MLOAD SWAP2 DUP3 SWAP2 PUSH1 0x20 DUP4 MSTORE PUSH1 0x20 DUP4 ADD SWAP1 PUSH2 0x12CB JUMP JUMPDEST SUB SWAP1 RETURN JUMPDEST CALLVALUE PUSH2 0x405 JUMPI PUSH1 0x40 CALLDATASIZE PUSH1 0x3 NOT ADD SLT PUSH2 0x405 JUMPI PUSH1 0x24 CALLDATALOAD PUSH8 0xFFFFFFFFFFFFFFFF DUP2 GT PUSH2 0x405 JUMPI CALLDATASIZE PUSH1 0x23 DUP3 ADD SLT ISZERO PUSH2 0x405 JUMPI DUP1 PUSH1 0x4 ADD CALLDATALOAD PUSH8 0xFFFFFFFFFFFFFFFF DUP2 GT PUSH2 0xB2A JUMPI DUP1 PUSH1 0x5 SHL SWAP2 PUSH1 0x40 MLOAD SWAP2 PUSH2 0xD04 PUSH1 0x20 DUP6 ADD DUP5 PUSH2 0x12EF JUMP JUMPDEST DUP3 MSTORE PUSH1 0x20 DUP3 ADD PUSH1 0x24 DUP2 SWAP5 DUP4 ADD ADD SWAP2 CALLDATASIZE DUP4 GT PUSH2 0x405 JUMPI PUSH1 0x24 ADD SWAP1 JUMPDEST DUP3 DUP3 LT PUSH2 0xEB1 JUMPI POP POP POP PUSH32 0x0 PUSH1 0x1 PUSH1 0x1 PUSH1 0xA0 SHL SUB AND CALLER SUB PUSH2 0xE78 JUMPI PUSH1 0xE SLOAD PUSH1 0x4 CALLDATALOAD SUB PUSH2 0xE3E JUMPI DUP1 MLOAD ISZERO PUSH2 0xE06 JUMPI MLOAD ISZERO PUSH2 0xDF2 JUMPI MLOAD DUP1 PUSH1 0xF SSTORE PUSH1 0x9 SLOAD DUP1 ISZERO PUSH2 0xDDE JUMPI PUSH1 0x20 PUSH2 0xDAC PUSH32 0x75060F9E79552DF167B73353FEE6237A75BB5BA8EA022F77224E32F152138BCB SWAP3 DUP5 MOD PUSH2 0x12B3 JUMP JUMPDEST PUSH1 0x1 DUP1 PUSH1 0xA0 SHL SUB SWAP2 SLOAD SWAP1 PUSH1 0x3 SHL SHR AND SWAP3 DUP4 PUSH12 0xFFFFFFFFFFFFFFFFFFFFFFFF PUSH1 0xA0 SHL PUSH1 0xC SLOAD AND OR PUSH1 0xC SSTORE PUSH1 0x40 MLOAD SWAP1 DUP2 MSTORE LOG2 STOP JUMPDEST PUSH4 0x4E487B71 PUSH1 0xE0 SHL PUSH0 MSTORE PUSH1 0x12 PUSH1 0x4 MSTORE PUSH1 0x24 PUSH0 REVERT JUMPDEST PUSH4 0x4E487B71 PUSH1 0xE0 SHL PUSH0 MSTORE PUSH1 0x32 PUSH1 0x4 MSTORE PUSH1 0x24 PUSH0 REVERT JUMPDEST PUSH1 0x40 MLOAD PUSH3 0x461BCD PUSH1 0xE5 SHL DUP2 MSTORE PUSH1 0x20 PUSH1 0x4 DUP3 ADD MSTORE PUSH1 0x10 PUSH1 0x24 DUP3 ADD MSTORE PUSH16 0x2737903930B73237B690373AB6B132B9 PUSH1 0x81 SHL PUSH1 0x44 DUP3 ADD MSTORE PUSH1 0x64 SWAP1 REVERT JUMPDEST PUSH1 0x40 MLOAD PUSH3 0x461BCD PUSH1 0xE5 SHL DUP2 MSTORE PUSH1 0x20 PUSH1 0x4 DUP3 ADD MSTORE PUSH1 0x12 PUSH1 0x24 DUP3 ADD MSTORE PUSH18 0x125B9D985B1A59081C995C5D595CDD081251 PUSH1 0x72 SHL PUSH1 0x44 DUP3 ADD MSTORE PUSH1 0x64 SWAP1 REVERT JUMPDEST PUSH1 0x40 MLOAD PUSH3 0x461BCD PUSH1 0xE5 SHL DUP2 MSTORE PUSH1 0x20 PUSH1 0x4 DUP3 ADD MSTORE PUSH1 0x11 PUSH1 0x24 DUP3 ADD MSTORE PUSH17 0x27B7363C9029BAB83930902937BABA32B9 PUSH1 0x79 SHL PUSH1 0x44 DUP3 ADD MSTORE PUSH1 0x64 SWAP1 REVERT JUMPDEST DUP2 CALLDATALOAD DUP2 MSTORE PUSH1 0x20 SWAP2 DUP3 ADD SWAP2 ADD PUSH2 0xD1E JUMP JUMPDEST CALLVALUE PUSH2 0x405 JUMPI PUSH0 CALLDATASIZE PUSH1 0x3 NOT ADD SLT PUSH2 0x405 JUMPI PUSH2 0xED9 PUSH2 0x1895 JUMP JUMPDEST PUSH0 DUP1 SLOAD PUSH1 0x1 PUSH1 0x1 PUSH1 0xA0 SHL SUB NOT DUP2 AND DUP3 SSTORE PUSH1 0x1 PUSH1 0x1 PUSH1 0xA0 SHL SUB AND PUSH32 0x8BE0079C531659141344CD1FD0A4F28419497F9722A3DAAFE3B4186F6B6457E0 DUP3 DUP1 LOG3 STOP JUMPDEST CALLVALUE PUSH2 0x405 JUMPI PUSH0 CALLDATASIZE PUSH1 0x3 NOT ADD SLT PUSH2 0x405 JUMPI PUSH1 0x20 PUSH1 0xD SLOAD PUSH1 0x40 MLOAD SWAP1 DUP2 MSTORE RETURN JUMPDEST CALLVALUE PUSH2 0x405 JUMPI PUSH0 CALLDATASIZE PUSH1 0x3 NOT ADD SLT PUSH2 0x405 JUMPI PUSH1 0x40 MLOAD PUSH32 0x0 PUSH1 0x1 PUSH1 0x1 PUSH1 0xA0 SHL SUB AND DUP2 MSTORE PUSH1 0x20 SWAP1 RETURN JUMPDEST CALLVALUE PUSH2 0x405 JUMPI PUSH0 CALLDATASIZE PUSH1 0x3 NOT ADD SLT PUSH2 0x405 JUMPI PUSH2 0xFC9 PUSH1 0x3 SLOAD PUSH1 0x4 SLOAD SWAP1 PUSH1 0xFF PUSH1 0x5 SLOAD PUSH1 0x6 SLOAD PUSH1 0x9 SLOAD PUSH1 0xD SLOAD SWAP1 PUSH1 0x7 SLOAD SWAP3 PUSH1 0xC SLOAD SWAP5 PUSH2 0xFB2 PUSH2 0x1311 JUMP JUMPDEST SWAP9 PUSH1 0x40 MLOAD SWAP11 DUP12 SWAP11 PUSH2 0x160 DUP13 MSTORE PUSH2 0x160 DUP13 ADD SWAP1 PUSH2 0x12CB JUMP JUMPDEST SWAP9 PUSH1 0x20 DUP12 ADD MSTORE PUSH1 0x40 DUP11 ADD MSTORE PUSH1 0x60 DUP10 ADD MSTORE PUSH1 0x80 DUP9 ADD MSTORE PUSH1 0xA0 DUP8 ADD MSTORE PUSH1 0xC0 DUP7 ADD MSTORE PUSH1 0xE0 DUP6 ADD MSTORE PUSH1 0x1 DUP1 PUSH1 0xA0 SHL SUB DUP2 AND PUSH2 0x100 DUP6 ADD MSTORE DUP2 DUP2 PUSH1 0xA0 SHR AND ISZERO ISZERO PUSH2 0x120 DUP6 ADD MSTORE PUSH1 0xA8 SHR AND ISZERO ISZERO PUSH2 0x140 DUP4 ADD MSTORE SUB SWAP1 RETURN JUMPDEST CALLVALUE PUSH2 0x405 JUMPI PUSH0 CALLDATASIZE PUSH1 0x3 NOT ADD SLT PUSH2 0x405 JUMPI PUSH1 0x20 PUSH1 0xD SLOAD PUSH1 0x4 SLOAD GT ISZERO PUSH1 0x40 MLOAD SWAP1 DUP2 MSTORE RETURN JUMPDEST CALLVALUE PUSH2 0x405 JUMPI PUSH0 CALLDATASIZE PUSH1 0x3 NOT ADD SLT PUSH2 0x405 JUMPI PUSH1 0x40 MLOAD DUP1 PUSH1 0x20 PUSH1 0x9 SLOAD SWAP3 DUP4 DUP2 MSTORE ADD DUP1 SWAP3 PUSH1 0x9 PUSH0 MSTORE PUSH32 0x6E1540171B6C0C960B71A7020D9F60077F6AF931A8BBF590DA0223DACF75C7AF SWAP1 PUSH0 JUMPDEST DUP2 DUP2 LT PUSH2 0x10E5 JUMPI POP POP POP DUP2 PUSH2 0x109A SWAP2 SUB DUP3 PUSH2 0x12EF JUMP JUMPDEST PUSH1 0x40 MLOAD SWAP2 DUP3 SWAP2 PUSH1 0x20 DUP4 ADD SWAP1 PUSH1 0x20 DUP5 MSTORE MLOAD DUP1 SWAP2 MSTORE PUSH1 0x40 DUP4 ADD SWAP2 SWAP1 PUSH0 JUMPDEST DUP2 DUP2 LT PUSH2 0x10C3 JUMPI POP POP POP SUB SWAP1 RETURN JUMPDEST DUP3 MLOAD PUSH1 0x1 PUSH1 0x1 PUSH1 0xA0 SHL SUB AND DUP5 MSTORE DUP6 SWAP5 POP PUSH1 0x20 SWAP4 DUP5 ADD SWAP4 SWAP1 SWAP3 ADD SWAP2 PUSH1 0x1 ADD PUSH2 0x10B5 JUMP JUMPDEST DUP3 SLOAD PUSH1 0x1 PUSH1 0x1 PUSH1 0xA0 SHL SUB AND DUP5 MSTORE PUSH1 0x20 SWAP1 SWAP4 ADD SWAP3 PUSH1 0x1 SWAP3 DUP4 ADD SWAP3 ADD PUSH2 0x1084 JUMP JUMPDEST CALLVALUE PUSH2 0x405 JUMPI PUSH0 CALLDATASIZE PUSH1 0x3 NOT ADD SLT PUSH2 0x405 JUMPI PUSH1 0x20 PUSH1 0x3 SLOAD PUSH1 0x40 MLOAD SWAP1 DUP2 MSTORE RETURN JUMPDEST CALLVALUE PUSH2 0x405 JUMPI PUSH1 0x20 CALLDATASIZE PUSH1 0x3 NOT ADD SLT PUSH2 0x405 JUMPI PUSH1 0x4 CALLDATALOAD PUSH1 0x1 PUSH1 0x1 PUSH1 0xA0 SHL SUB DUP2 AND SWAP1 DUP2 SWAP1 SUB PUSH2 0x405 JUMPI PUSH0 MSTORE PUSH1 0xA PUSH1 0x20 MSTORE PUSH1 0x20 PUSH1 0x40 PUSH0 KECCAK256 SLOAD PUSH1 0x40 MLOAD SWAP1 DUP2 MSTORE RETURN JUMPDEST CALLVALUE PUSH2 0x405 JUMPI PUSH1 0x20 CALLDATASIZE PUSH1 0x3 NOT ADD SLT PUSH2 0x405 JUMPI PUSH1 0x4 CALLDATALOAD PUSH1 0x9 SLOAD DUP2 LT ISZERO PUSH2 0x405 JUMPI PUSH2 0x1186 PUSH1 0x20 SWAP2 PUSH2 0x12B3 JUMP JUMPDEST SWAP1 SLOAD PUSH1 0x40 MLOAD PUSH1 0x3 SWAP3 SWAP1 SWAP3 SHL SHR PUSH1 0x1 PUSH1 0x1 PUSH1 0xA0 SHL SUB AND DUP2 MSTORE RETURN JUMPDEST CALLVALUE PUSH2 0x405 JUMPI PUSH0 CALLDATASIZE PUSH1 0x3 NOT ADD SLT PUSH2 0x405 JUMPI PUSH1 0x20 PUSH1 0x6 SLOAD PUSH1 0x40 MLOAD SWAP1 DUP2 MSTORE RETURN JUMPDEST CALLVALUE PUSH2 0x405 JUMPI PUSH0 CALLDATASIZE PUSH1 0x3 NOT ADD SLT PUSH2 0x405 JUMPI PUSH2 0x1200 CALLER PUSH32 0x0 PUSH1 0x1 PUSH1 0x1 PUSH1 0xA0 SHL SUB AND EQ PUSH2 0x13F3 JUMP JUMPDEST PUSH1 0xFF PUSH1 0xC SLOAD PUSH2 0x1214 DUP3 DUP3 PUSH1 0xA0 SHR AND ISZERO PUSH2 0x142C JUMP JUMPDEST PUSH1 0xA8 SHR AND PUSH2 0x1226 JUMPI PUSH2 0x1224 PUSH2 0x1700 JUMP JUMPDEST STOP JUMPDEST PUSH1 0x40 MLOAD PUSH3 0x461BCD PUSH1 0xE5 SHL DUP2 MSTORE PUSH1 0x20 PUSH1 0x4 DUP3 ADD MSTORE PUSH1 0x11 PUSH1 0x24 DUP3 ADD MSTORE PUSH17 0x105B1C9958591E4818D85B98D95B1B1959 PUSH1 0x7A SHL PUSH1 0x44 DUP3 ADD MSTORE PUSH1 0x64 SWAP1 REVERT JUMPDEST CALLVALUE PUSH2 0x405 JUMPI PUSH0 CALLDATASIZE PUSH1 0x3 NOT ADD SLT PUSH2 0x405 JUMPI PUSH1 0x20 PUSH1 0xE SLOAD PUSH1 0x40 MLOAD SWAP1 DUP2 MSTORE RETURN JUMPDEST CALLVALUE PUSH2 0x405 JUMPI PUSH0 CALLDATASIZE PUSH1 0x3 NOT ADD SLT PUSH2 0x405 JUMPI PUSH1 0x20 PUSH1 0x4 SLOAD PUSH1 0x40 MLOAD SWAP1 DUP2 MSTORE RETURN JUMPDEST CALLVALUE PUSH2 0x405 JUMPI PUSH0 CALLDATASIZE PUSH1 0x3 NOT ADD SLT PUSH2 0x405 JUMPI PUSH1 0x20 SWAP1 PUSH1 0x7 SLOAD DUP2 MSTORE RETURN JUMPDEST PUSH1 0x9 SLOAD DUP2 LT ISZERO PUSH2 0xDF2 JUMPI PUSH1 0x9 PUSH0 MSTORE PUSH1 0x20 PUSH0 KECCAK256 ADD SWAP1 PUSH0 SWAP1 JUMP JUMPDEST DUP1 MLOAD DUP1 DUP4 MSTORE PUSH1 0x20 SWAP3 SWAP2 DUP2 SWAP1 DUP5 ADD DUP5 DUP5 ADD MCOPY PUSH0 DUP3 DUP3 ADD DUP5 ADD MSTORE PUSH1 0x1F ADD PUSH1 0x1F NOT AND ADD ADD SWAP1 JUMP JUMPDEST SWAP1 PUSH1 0x1F DUP1 NOT SWAP2 ADD AND DUP2 ADD SWAP1 DUP2 LT PUSH8 0xFFFFFFFFFFFFFFFF DUP3 GT OR PUSH2 0xB2A JUMPI PUSH1 0x40 MSTORE JUMP JUMPDEST PUSH1 0x40 MLOAD SWAP1 PUSH0 PUSH1 0x2 SLOAD DUP1 PUSH1 0x1 SHR SWAP2 PUSH1 0x1 DUP3 AND SWAP2 DUP3 ISZERO PUSH2 0x13E9 JUMPI JUMPDEST PUSH1 0x20 DUP5 LT DUP4 EQ PUSH2 0x13D5 JUMPI DUP4 DUP7 MSTORE DUP6 SWAP3 SWAP1 DUP2 ISZERO PUSH2 0x13B6 JUMPI POP PUSH1 0x1 EQ PUSH2 0x1357 JUMPI JUMPDEST PUSH2 0x1355 SWAP3 POP SUB DUP4 PUSH2 0x12EF JUMP JUMPDEST JUMP JUMPDEST POP PUSH1 0x2 PUSH0 SWAP1 DUP2 MSTORE SWAP1 SWAP2 PUSH32 0x405787FA12A823E0F2B7631CC41B3BA8828B3321CA811111FA75CD3AA3BB5ACE JUMPDEST DUP2 DUP4 LT PUSH2 0x139A JUMPI POP POP SWAP1 PUSH1 0x20 PUSH2 0x1355 SWAP3 DUP3 ADD ADD PUSH2 0x1349 JUMP JUMPDEST PUSH1 0x20 SWAP2 SWAP4 POP DUP1 PUSH1 0x1 SWAP2 SLOAD DUP4 DUP6 DUP10 ADD ADD MSTORE ADD SWAP2 ADD SWAP1 SWAP2 DUP5 SWAP3 PUSH2 0x1382 JUMP JUMPDEST PUSH1 0x20 SWAP3 POP PUSH2 0x1355 SWAP5 SWAP2 POP PUSH1 0xFF NOT AND DUP3 DUP5 ADD MSTORE ISZERO ISZERO PUSH1 0x5 SHL DUP3 ADD ADD PUSH2 0x1349 JUMP JUMPDEST PUSH4 0x4E487B71 PUSH1 0xE0 SHL PUSH0 MSTORE PUSH1 0x22 PUSH1 0x4 MSTORE PUSH1 0x24 PUSH0 REVERT JUMPDEST SWAP3 PUSH1 0x7F AND SWAP3 PUSH2 0x132A JUMP JUMPDEST ISZERO PUSH2 0x13FA JUMPI JUMP JUMPDEST PUSH1 0x40 MLOAD PUSH3 0x461BCD PUSH1 0xE5 SHL DUP2 MSTORE PUSH1 0x20 PUSH1 0x4 DUP3 ADD MSTORE PUSH1 0xA PUSH1 0x24 DUP3 ADD MSTORE PUSH10 0x27B7363C9030B236B4B7 PUSH1 0xB1 SHL PUSH1 0x44 DUP3 ADD MSTORE PUSH1 0x64 SWAP1 REVERT JUMPDEST ISZERO PUSH2 0x1433 JUMPI JUMP JUMPDEST PUSH1 0x40 MLOAD PUSH3 0x461BCD PUSH1 0xE5 SHL DUP2 MSTORE PUSH1 0x20 PUSH1 0x4 DUP3 ADD MSTORE PUSH1 0x11 PUSH1 0x24 DUP3 ADD MSTORE PUSH17 0x105B1C9958591E48199A5B985B1A5E9959 PUSH1 0x7A SHL PUSH1 0x44 DUP3 ADD MSTORE PUSH1 0x64 SWAP1 REVERT JUMPDEST ISZERO PUSH2 0x1473 JUMPI JUMP JUMPDEST PUSH1 0x40 MLOAD PUSH3 0x461BCD PUSH1 0xE5 SHL DUP2 MSTORE PUSH1 0x20 PUSH1 0x4 DUP3 ADD MSTORE PUSH1 0xE PUSH1 0x24 DUP3 ADD MSTORE PUSH14 0x141BDBDB0818D85B98D95B1B1959 PUSH1 0x92 SHL PUSH1 0x44 DUP3 ADD MSTORE PUSH1 0x64 SWAP1 REVERT JUMPDEST SWAP1 DUP2 PUSH1 0x20 SWAP2 SUB SLT PUSH2 0x405 JUMPI MLOAD DUP1 ISZERO ISZERO DUP2 SUB PUSH2 0x405 JUMPI SWAP1 JUMP JUMPDEST SWAP2 SWAP1 DUP3 ADD DUP1 SWAP3 GT PUSH2 0xB16 JUMPI JUMP JUMPDEST ISZERO PUSH2 0x14D5 JUMPI JUMP JUMPDEST PUSH1 0x40 MLOAD PUSH3 0x461BCD PUSH1 0xE5 SHL DUP2 MSTORE PUSH1 0x20 PUSH1 0x4 DUP3 ADD MSTORE PUSH1 0xF PUSH1 0x24 DUP3 ADD MSTORE PUSH15 0x151C985B9CD9995C8819985A5B1959 PUSH1 0x8A SHL PUSH1 0x44 DUP3 ADD MSTORE PUSH1 0x64 SWAP1 REVERT JUMPDEST PUSH2 0x152D PUSH1 0xFF PUSH1 0xC SLOAD PUSH2 0x1523 DUP3 DUP3 PUSH1 0xA8 SHR AND ISZERO PUSH2 0x146C JUMP JUMPDEST PUSH1 0xA0 SHR AND ISZERO PUSH2 0x142C JUMP JUMPDEST PUSH1 0x7 SLOAD TIMESTAMP LT PUSH2 0x16CA JUMPI PUSH1 0x9 SLOAD ISZERO PUSH2 0x1693 JUMPI PUSH1 0xFF PUSH1 0x10 SLOAD AND PUSH2 0x165A JUMPI PUSH1 0xD SLOAD PUSH1 0x4 SLOAD GT PUSH2 0x1652 JUMPI PUSH1 0x1 PUSH1 0xFF NOT PUSH1 0x10 SLOAD AND OR PUSH1 0x10 SSTORE PUSH1 0x40 MLOAD PUSH4 0xD291BA09 PUSH1 0xE0 SHL DUP2 MSTORE PUSH1 0x80 PUSH1 0x4 DUP3 ADD MSTORE PUSH1 0x1B PUSH1 0x84 DUP3 ADD MSTORE PUSH32 0x63616C6C6261636B2875696E743235362C75696E743235365B5D290000000000 PUSH1 0xA4 DUP3 ADD MSTORE PUSH1 0x1 PUSH1 0x24 DUP3 ADD MSTORE PUSH1 0x1 PUSH1 0x44 DUP3 ADD MSTORE ADDRESS PUSH1 0x64 DUP3 ADD MSTORE PUSH1 0x20 DUP2 PUSH1 0xC4 DUP2 PUSH0 PUSH1 0x1 DUP1 PUSH1 0xA0 SHL SUB PUSH32 0x0 AND GAS CALL SWAP1 DUP2 ISZERO PUSH2 0xB0B JUMPI PUSH0 SWAP2 PUSH2 0x1620 JUMPI JUMPDEST POP DUP1 PUSH1 0xE SSTORE PUSH32 0x9AC10FB18C93D33AD7B0A941897AEF048D0F8D30756684E82B4552BA12764D45 PUSH0 DUP1 LOG2 JUMP JUMPDEST SWAP1 POP PUSH1 0x20 DUP2 RETURNDATASIZE PUSH1 0x20 GT PUSH2 0x164A JUMPI JUMPDEST DUP2 PUSH2 0x163B PUSH1 0x20 SWAP4 DUP4 PUSH2 0x12EF JUMP JUMPDEST DUP2 ADD SUB SLT PUSH2 0x405 JUMPI MLOAD PUSH0 PUSH2 0x15F5 JUMP JUMPDEST RETURNDATASIZE SWAP2 POP PUSH2 0x162E JUMP JUMPDEST PUSH2 0x1355 PUSH2 0x1700 JUMP JUMPDEST PUSH1 0x40 MLOAD PUSH3 0x461BCD PUSH1 0xE5 SHL DUP2 MSTORE PUSH1 0x20 PUSH1 0x4 DUP3 ADD MSTORE PUSH1 0x11 PUSH1 0x24 DUP3 ADD MSTORE PUSH17 0x105B1C9958591E481C995C5D595CDD1959 PUSH1 0x7A SHL PUSH1 0x44 DUP3 ADD MSTORE PUSH1 0x64 SWAP1 REVERT JUMPDEST PUSH1 0x40 MLOAD PUSH3 0x461BCD PUSH1 0xE5 SHL DUP2 MSTORE PUSH1 0x20 PUSH1 0x4 DUP3 ADD MSTORE PUSH1 0xF PUSH1 0x24 DUP3 ADD MSTORE PUSH15 0x4E6F207061727469636970616E7473 PUSH1 0x88 SHL PUSH1 0x44 DUP3 ADD MSTORE PUSH1 0x64 SWAP1 REVERT JUMPDEST PUSH1 0x40 MLOAD PUSH3 0x461BCD PUSH1 0xE5 SHL DUP2 MSTORE PUSH1 0x20 PUSH1 0x4 DUP3 ADD MSTORE PUSH1 0xE PUSH1 0x24 DUP3 ADD MSTORE PUSH14 0x141BDBDB081B9BDD08195B991959 PUSH1 0x92 SHL PUSH1 0x44 DUP3 ADD MSTORE PUSH1 0x64 SWAP1 REVERT JUMPDEST PUSH1 0xC DUP1 SLOAD PUSH1 0xFF PUSH1 0xA8 SHL NOT AND PUSH1 0x1 PUSH1 0xA8 SHL OR SWAP1 SSTORE PUSH0 SWAP1 DUP2 JUMPDEST PUSH1 0x9 SLOAD DUP2 LT ISZERO PUSH2 0x1866 JUMPI PUSH2 0x172A DUP2 PUSH2 0x12B3 JUMP JUMPDEST SWAP1 SLOAD PUSH1 0x3 SWAP2 SWAP1 SWAP2 SHL SHR PUSH1 0x1 PUSH1 0x1 PUSH1 0xA0 SHL SUB AND PUSH0 DUP2 DUP2 MSTORE PUSH1 0xA PUSH1 0x20 MSTORE PUSH1 0x40 SWAP1 KECCAK256 SLOAD SWAP1 DUP2 PUSH2 0x175B JUMPI JUMPDEST POP POP PUSH1 0x1 ADD PUSH2 0x1717 JUMP JUMPDEST PUSH0 DUP2 DUP2 MSTORE PUSH1 0xA PUSH1 0x20 SWAP1 DUP2 MSTORE PUSH1 0x40 DUP1 DUP4 KECCAK256 DUP4 SWAP1 SSTORE MLOAD PUSH4 0xA9059CBB PUSH1 0xE0 SHL DUP2 MSTORE PUSH1 0x1 PUSH1 0x1 PUSH1 0xA0 SHL SUB DUP1 DUP6 AND PUSH1 0x4 DUP4 ADD MSTORE PUSH1 0x24 DUP3 ADD DUP7 SWAP1 MSTORE SWAP5 SWAP8 SWAP6 SWAP5 SWAP1 SWAP3 DUP4 SWAP2 PUSH1 0x44 SWAP2 DUP4 SWAP2 PUSH32 0x0 AND GAS CALL SWAP1 DUP2 ISZERO PUSH2 0xB0B JUMPI PUSH0 SWAP2 PUSH2 0x1848 JUMPI JUMPDEST POP ISZERO PUSH2 0x1813 JUMPI PUSH32 0xD7DEE2702D63AD89917B6A4DA9981C90C4D24F8C2BDFD64C604ECAE57D8D0651 PUSH1 0x20 PUSH2 0x1804 DUP8 PUSH1 0x1 SWAP7 PUSH2 0x14C1 JUMP JUMPDEST SWAP7 PUSH1 0x40 MLOAD SWAP1 DUP2 MSTORE LOG2 SWAP1 PUSH0 PUSH2 0x1751 JUMP JUMPDEST PUSH1 0x40 MLOAD PUSH3 0x461BCD PUSH1 0xE5 SHL DUP2 MSTORE PUSH1 0x20 PUSH1 0x4 DUP3 ADD MSTORE PUSH1 0xD PUSH1 0x24 DUP3 ADD MSTORE PUSH13 0x1499599D5B990819985A5B1959 PUSH1 0x9A SHL PUSH1 0x44 DUP3 ADD MSTORE PUSH1 0x64 SWAP1 REVERT JUMPDEST PUSH2 0x1860 SWAP2 POP PUSH1 0x20 RETURNDATASIZE DUP2 GT PUSH2 0x3C4 JUMPI PUSH2 0x3B6 DUP2 DUP4 PUSH2 0x12EF JUMP JUMPDEST PUSH0 PUSH2 0x17CF JUMP JUMPDEST POP SWAP1 PUSH1 0x20 PUSH32 0x3D229DD60FC64B0903758FEED58453F62E715F5D01DC0978C0A3A312DD2776C2 SWAP2 PUSH1 0x40 MLOAD SWAP1 DUP2 MSTORE LOG1 JUMP JUMPDEST PUSH0 SLOAD PUSH1 0x1 PUSH1 0x1 PUSH1 0xA0 SHL SUB AND CALLER SUB PUSH2 0x18A8 JUMPI JUMP JUMPDEST PUSH4 0x118CDAA7 PUSH1 0xE0 SHL PUSH0 MSTORE CALLER PUSH1 0x4 MSTORE PUSH1 0x24 PUSH0 REVERT INVALID LOG2 PUSH5 0x6970667358 0x22 SLT KECCAK256 0xBB 0x2B 0xE1 LOG0 0xFB LT CALLDATACOPY PUSH3 0x9C2B74 0xE7 0xDE SWAP5 LOG1 GASLIMIT 0xDC 0xC8 LOG4 DUP4 0xDE 0x26 STATICCALL 0xAC 0xD5 DUP5 0xEB NOT BYTE BLOBHASH MCOPY 0xF9 PUSH5 0x736F6C6343 STOP ADDMOD SHR STOP CALLER LOG2 PUSH5 0x6970667358 0x22 SLT KECCAK256 BLOBBASEFEE MUL 0xE4 CALLER MCOPY MSTORE8 PUSH3 0xE509DA CHAINID 0xD4 0xBE 0xAA DUP12 MSTORE8 0x4D TLOAD LOG2 0xA7 EXP PUSH9 0x40C628DB546F9BBD43 SWAP14 PUSH5 0x736F6C6343 STOP ADDMOD SHR STOP CALLER "},"methodIdentifiers":{"admin()":"f851a440","allPools(uint256)":"41d1de97","createPool(address,string,uint256,uint256,uint256,uint256,uint256)":"ae808e80","getAllPools()":"d88ff1f4","getPoolCount()":"8eec5d70","getUserCreatedPools(address)":"2d380cca","isPool(address)":"5b16ebb7","setAdmin(address)":"704b6c02","supraRouter()":"e621ff8a","tlootToken()":"6b0ce9ea","usdtToken()":"a98ad46c","userCreatedPools(address,uint256)":"bbef6f90"}}}}}